{
  "contractName": "AuthoritiesContract",
  "abi": [
    {
      "inputs": [],
      "stateMutability": "nonpayable",
      "type": "constructor"
    },
    {
      "anonymous": false,
      "inputs": [
        {
          "indexed": true,
          "internalType": "address",
          "name": "addr",
          "type": "address"
        },
        {
          "indexed": false,
          "internalType": "uint256",
          "name": "timestamp",
          "type": "uint256"
        }
      ],
      "name": "AuthorityRegistered",
      "type": "event"
    },
    {
      "inputs": [],
      "name": "owner",
      "outputs": [
        {
          "internalType": "address",
          "name": "",
          "type": "address"
        }
      ],
      "stateMutability": "view",
      "type": "function"
    },
    {
      "inputs": [
        {
          "internalType": "address",
          "name": "_addr",
          "type": "address"
        }
      ],
      "name": "registerNewAuthority",
      "outputs": [],
      "stateMutability": "nonpayable",
      "type": "function"
    },
    {
      "inputs": [],
      "name": "getAuthorityCount",
      "outputs": [
        {
          "internalType": "uint256",
          "name": "",
          "type": "uint256"
        }
      ],
      "stateMutability": "view",
      "type": "function"
    },
    {
      "inputs": [
        {
          "internalType": "uint256",
          "name": "_index",
          "type": "uint256"
        }
      ],
      "name": "getAuthorityByIndex",
      "outputs": [
        {
          "internalType": "address",
          "name": "addr",
          "type": "address"
        }
      ],
      "stateMutability": "view",
      "type": "function"
    },
    {
      "inputs": [
        {
          "internalType": "address",
          "name": "_addr",
          "type": "address"
        }
      ],
      "name": "checkIfRegistered",
      "outputs": [
        {
          "internalType": "bool",
          "name": "",
          "type": "bool"
        }
      ],
      "stateMutability": "view",
      "type": "function"
    }
  ],
  "bytecode": "0x60806040523480156200001157600080fd5b50336000806101000a81548173ffffffffffffffffffffffffffffffffffffffff021916908373ffffffffffffffffffffffffffffffffffffffff1602179055506200008360008054906101000a900473ffffffffffffffffffffffffffffffffffffffff166200008960201b60201c565b620004b8565b60008054906101000a900473ffffffffffffffffffffffffffffffffffffffff1673ffffffffffffffffffffffffffffffffffffffff163373ffffffffffffffffffffffffffffffffffffffff16146200011a576040517f08c379a00000000000000000000000000000000000000000000000000000000081526004016200011190620003e3565b60405180910390fd5b600073ffffffffffffffffffffffffffffffffffffffff168173ffffffffffffffffffffffffffffffffffffffff1614156200018d576040517f08c379a000000000000000000000000000000000000000000000000000000000815260040162000184906200039f565b60405180910390fd5b60011515620001ac8260016200024460201b6200032c1790919060201c565b151514620001f1576040517f08c379a0000000000000000000000000000000000000000000000000000000008152600401620001e890620003c1565b60405180910390fd5b8073ffffffffffffffffffffffffffffffffffffffff167f54402fda05a7beef8f85b30a0f582da5a75bbad1ca4f4e14f3510a7a177c432d4260405162000239919062000405565b60405180910390a250565b600062000274836000018373ffffffffffffffffffffffffffffffffffffffff1660001b6200027c60201b60201c565b905092915050565b6000620002908383620002f660201b60201c565b620002eb578260000182908060018154018082558091505060019003906000526020600020016000909190919091505582600001805490508360010160008481526020019081526020016000208190555060019050620002f0565b600090505b92915050565b600080836001016000848152602001908152602001600020541415905092915050565b600062000328600f8362000422565b915062000335826200043d565b602082019050919050565b60006200034f601a8362000422565b91506200035c8262000466565b602082019050919050565b60006200037660168362000422565b915062000383826200048f565b602082019050919050565b620003998162000433565b82525050565b60006020820190508181036000830152620003ba8162000319565b9050919050565b60006020820190508181036000830152620003dc8162000340565b9050919050565b60006020820190508181036000830152620003fe8162000367565b9050919050565b60006020820190506200041c60008301846200038e565b92915050565b600082825260208201905092915050565b6000819050919050565b7f496e76616c696420616464726573730000000000000000000000000000000000600082015250565b7f4164647265737320616c72656164792072656769737465726564000000000000600082015250565b7f596f7520617265206e6f7420746865206f776e65722e00000000000000000000600082015250565b6107c180620004c86000396000f3fe608060405234801561001057600080fd5b50600436106100575760003560e01c80634317577a1461005c57806349363909146100785780638da5cb5b146100a8578063a40dd1bc146100c6578063af64e735146100e4575b600080fd5b610076600480360381019061007191906104b4565b610114565b005b610092600480360381019061008d91906104e1565b6102bd565b60405161009f91906105a4565b60405180910390f35b6100b06102da565b6040516100bd91906105a4565b60405180910390f35b6100ce6102fe565b6040516100db919061063a565b60405180910390f35b6100fe60048036038101906100f991906104b4565b61030f565b60405161010b91906105bf565b60405180910390f35b60008054906101000a900473ffffffffffffffffffffffffffffffffffffffff1673ffffffffffffffffffffffffffffffffffffffff163373ffffffffffffffffffffffffffffffffffffffff16146101a2576040517f08c379a00000000000000000000000000000000000000000000000000000000081526004016101999061061a565b60405180910390fd5b600073ffffffffffffffffffffffffffffffffffffffff168173ffffffffffffffffffffffffffffffffffffffff161415610212576040517f08c379a0000000000000000000000000000000000000000000000000000000008152600401610209906105da565b60405180910390fd5b6001151561022a82600161032c90919063ffffffff16565b15151461026c576040517f08c379a0000000000000000000000000000000000000000000000000000000008152600401610263906105fa565b60405180910390fd5b8073ffffffffffffffffffffffffffffffffffffffff167f54402fda05a7beef8f85b30a0f582da5a75bbad1ca4f4e14f3510a7a177c432d426040516102b2919061063a565b60405180910390a250565b60006102d382600161035c90919063ffffffff16565b9050919050565b60008054906101000a900473ffffffffffffffffffffffffffffffffffffffff1681565b600061030a6001610376565b905090565b600061032582600161038b90919063ffffffff16565b9050919050565b6000610354836000018373ffffffffffffffffffffffffffffffffffffffff1660001b6103bb565b905092915050565b600061036b836000018361042b565b60001c905092915050565b600061038482600001610456565b9050919050565b60006103b3836000018373ffffffffffffffffffffffffffffffffffffffff1660001b610467565b905092915050565b60006103c78383610467565b610420578260000182908060018154018082558091505060019003906000526020600020016000909190919091505582600001805490508360010160008481526020019081526020016000208190555060019050610425565b600090505b92915050565b6000826000018281548110610443576104426106ae565b5b9060005260206000200154905092915050565b600081600001805490509050919050565b600080836001016000848152602001908152602001600020541415905092915050565b6000813590506104998161075d565b92915050565b6000813590506104ae81610774565b92915050565b6000602082840312156104ca576104c96106dd565b5b60006104d88482850161048a565b91505092915050565b6000602082840312156104f7576104f66106dd565b5b60006105058482850161049f565b91505092915050565b61051781610666565b82525050565b61052681610678565b82525050565b6000610539600f83610655565b9150610544826106e2565b602082019050919050565b600061055c601a83610655565b91506105678261070b565b602082019050919050565b600061057f601683610655565b915061058a82610734565b602082019050919050565b61059e816106a4565b82525050565b60006020820190506105b9600083018461050e565b92915050565b60006020820190506105d4600083018461051d565b92915050565b600060208201905081810360008301526105f38161052c565b9050919050565b600060208201905081810360008301526106138161054f565b9050919050565b6000602082019050818103600083015261063381610572565b9050919050565b600060208201905061064f6000830184610595565b92915050565b600082825260208201905092915050565b600061067182610684565b9050919050565b60008115159050919050565b600073ffffffffffffffffffffffffffffffffffffffff82169050919050565b6000819050919050565b7f4e487b7100000000000000000000000000000000000000000000000000000000600052603260045260246000fd5b600080fd5b7f496e76616c696420616464726573730000000000000000000000000000000000600082015250565b7f4164647265737320616c72656164792072656769737465726564000000000000600082015250565b7f596f7520617265206e6f7420746865206f776e65722e00000000000000000000600082015250565b61076681610666565b811461077157600080fd5b50565b61077d816106a4565b811461078857600080fd5b5056fea264697066735822122021396ce5a4070c3b505f59daf747e30ec40982f491afce9ed8f6dca42b51c18464736f6c63430008070033",
  "immutableReferences": {},
  "source": "// SPDX-License-Identifier: MIT\r\n\r\npragma solidity ^0.8.0;\r\n\r\nimport \"./Ownable.sol\";\r\nimport \"@openzeppelin/contracts/utils/structs/EnumerableSet.sol\";\r\n\r\ncontract AuthoritiesContract is Ownable {\r\n\r\n  using EnumerableSet for EnumerableSet.AddressSet;\r\n\r\n  EnumerableSet.AddressSet authorities;\r\n\r\n  event AuthorityRegistered (\r\n    address indexed addr,\r\n    uint timestamp\r\n  );\r\n\r\n  constructor() {\r\n    registerNewAuthority(owner);\r\n  }\r\n\r\n  modifier onlyAuthority() {\r\n    require(checkIfRegistered(msg.sender) == true, \"Only a registered authority can carry out this action\");\r\n    _;\r\n  }\r\n\r\n  function registerNewAuthority(address _addr) public onlyOwner {\r\n    require(_addr != address(0), \"Invalid address\");\r\n    require(authorities.add(_addr) == true, \"Address already registered\");\r\n    emit AuthorityRegistered(_addr, block.timestamp);\r\n  }\r\n\r\n  function getAuthorityCount() public view returns(uint) {\r\n    return authorities.length();\r\n  }\r\n\r\n  function getAuthorityByIndex(uint _index) public view returns (address addr) {\r\n    return authorities.at(_index);\r\n  }\r\n\r\n  function checkIfRegistered(address _addr) public view returns (bool) {\r\n    return authorities.contains(_addr);\r\n  }\r\n}\r\n",
  "sourcePath": "C:/Users/HP/Documents/Projects/CertiBlocks/contracts/Authorities.sol",
  "compiler": {
    "name": "solc",
    "version": "0.8.7+commit.e28d00a7.Emscripten.clang"
  },
  "schemaVersion": "3.4.1",
  "updatedAt": "2022-10-27T06:04:51.137Z",
  "devdoc": {
    "kind": "dev",
    "methods": {},
    "version": 1
  },
  "userdoc": {
    "kind": "user",
    "methods": {},
    "version": 1
  }
}