{
  "contractName": "AuthoritiesContract",
  "abi": [
    {
      "inputs": [],
      "stateMutability": "nonpayable",
      "type": "constructor"
    },
    {
      "anonymous": false,
      "inputs": [
        {
          "indexed": true,
          "internalType": "address",
          "name": "addr",
          "type": "address"
        }
      ],
      "name": "AuthorityRegistered",
      "type": "event"
    },
    {
      "inputs": [],
      "name": "owner",
      "outputs": [
        {
          "internalType": "address",
          "name": "",
          "type": "address"
        }
      ],
      "stateMutability": "view",
      "type": "function"
    },
    {
      "inputs": [
        {
          "internalType": "address",
          "name": "_addr",
          "type": "address"
        }
      ],
      "name": "registerNewAuthority",
      "outputs": [],
      "stateMutability": "nonpayable",
      "type": "function"
    },
    {
      "inputs": [],
      "name": "getAuthorityCount",
      "outputs": [
        {
          "internalType": "uint256",
          "name": "",
          "type": "uint256"
        }
      ],
      "stateMutability": "view",
      "type": "function"
    },
    {
      "inputs": [
        {
          "internalType": "uint256",
          "name": "_index",
          "type": "uint256"
        }
      ],
      "name": "getAuthorityByIndex",
      "outputs": [
        {
          "internalType": "address",
          "name": "addr",
          "type": "address"
        }
      ],
      "stateMutability": "view",
      "type": "function"
    },
    {
      "inputs": [
        {
          "internalType": "address",
          "name": "_addr",
          "type": "address"
        }
      ],
      "name": "checkIfRegistered",
      "outputs": [
        {
          "internalType": "bool",
          "name": "",
          "type": "bool"
        }
      ],
      "stateMutability": "view",
      "type": "function"
    }
  ],
  "bytecode": "0x60806040523480156200001157600080fd5b50336000806101000a81548173ffffffffffffffffffffffffffffffffffffffff021916908373ffffffffffffffffffffffffffffffffffffffff1602179055506200008360008054906101000a900473ffffffffffffffffffffffffffffffffffffffff166200008960201b60201c565b62000473565b60008054906101000a900473ffffffffffffffffffffffffffffffffffffffff1673ffffffffffffffffffffffffffffffffffffffff163373ffffffffffffffffffffffffffffffffffffffff16146200011a576040517f08c379a00000000000000000000000000000000000000000000000000000000081526004016200011190620003c5565b60405180910390fd5b600073ffffffffffffffffffffffffffffffffffffffff168173ffffffffffffffffffffffffffffffffffffffff1614156200018d576040517f08c379a0000000000000000000000000000000000000000000000000000000008152600401620001849062000381565b60405180910390fd5b60011515620001ac8260016200023760201b620003211790919060201c565b151514620001f1576040517f08c379a0000000000000000000000000000000000000000000000000000000008152600401620001e890620003a3565b60405180910390fd5b8073ffffffffffffffffffffffffffffffffffffffff167f8ec6b4c704da9ea0a8bd9196f71626ec32c89805f3ff10486a6478353ef1cb3460405160405180910390a250565b600062000267836000018373ffffffffffffffffffffffffffffffffffffffff1660001b6200026f60201b60201c565b905092915050565b6000620002838383620002e960201b60201c565b620002de578260000182908060018154018082558091505060019003906000526020600020016000909190919091505582600001805490508360010160008481526020019081526020016000208190555060019050620002e3565b600090505b92915050565b600080836001016000848152602001908152602001600020541415905092915050565b60006200031b600f83620003e7565b91506200032882620003f8565b602082019050919050565b600062000342601a83620003e7565b91506200034f8262000421565b602082019050919050565b600062000369601683620003e7565b915062000376826200044a565b602082019050919050565b600060208201905081810360008301526200039c816200030c565b9050919050565b60006020820190508181036000830152620003be8162000333565b9050919050565b60006020820190508181036000830152620003e0816200035a565b9050919050565b600082825260208201905092915050565b7f496e76616c696420616464726573730000000000000000000000000000000000600082015250565b7f4164647265737320616c72656164792072656769737465726564000000000000600082015250565b7f596f7520617265206e6f7420746865206f776e65722e00000000000000000000600082015250565b6107b680620004836000396000f3fe608060405234801561001057600080fd5b50600436106100575760003560e01c80634317577a1461005c57806349363909146100785780638da5cb5b146100a8578063a40dd1bc146100c6578063af64e735146100e4575b600080fd5b610076600480360381019061007191906104a9565b610114565b005b610092600480360381019061008d91906104d6565b6102b2565b60405161009f9190610599565b60405180910390f35b6100b06102cf565b6040516100bd9190610599565b60405180910390f35b6100ce6102f3565b6040516100db919061062f565b60405180910390f35b6100fe60048036038101906100f991906104a9565b610304565b60405161010b91906105b4565b60405180910390f35b60008054906101000a900473ffffffffffffffffffffffffffffffffffffffff1673ffffffffffffffffffffffffffffffffffffffff163373ffffffffffffffffffffffffffffffffffffffff16146101a2576040517f08c379a00000000000000000000000000000000000000000000000000000000081526004016101999061060f565b60405180910390fd5b600073ffffffffffffffffffffffffffffffffffffffff168173ffffffffffffffffffffffffffffffffffffffff161415610212576040517f08c379a0000000000000000000000000000000000000000000000000000000008152600401610209906105cf565b60405180910390fd5b6001151561022a82600161032190919063ffffffff16565b15151461026c576040517f08c379a0000000000000000000000000000000000000000000000000000000008152600401610263906105ef565b60405180910390fd5b8073ffffffffffffffffffffffffffffffffffffffff167f8ec6b4c704da9ea0a8bd9196f71626ec32c89805f3ff10486a6478353ef1cb3460405160405180910390a250565b60006102c882600161035190919063ffffffff16565b9050919050565b60008054906101000a900473ffffffffffffffffffffffffffffffffffffffff1681565b60006102ff600161036b565b905090565b600061031a82600161038090919063ffffffff16565b9050919050565b6000610349836000018373ffffffffffffffffffffffffffffffffffffffff1660001b6103b0565b905092915050565b60006103608360000183610420565b60001c905092915050565b60006103798260000161044b565b9050919050565b60006103a8836000018373ffffffffffffffffffffffffffffffffffffffff1660001b61045c565b905092915050565b60006103bc838361045c565b61041557826000018290806001815401808255809150506001900390600052602060002001600090919091909150558260000180549050836001016000848152602001908152602001600020819055506001905061041a565b600090505b92915050565b6000826000018281548110610438576104376106a3565b5b9060005260206000200154905092915050565b600081600001805490509050919050565b600080836001016000848152602001908152602001600020541415905092915050565b60008135905061048e81610752565b92915050565b6000813590506104a381610769565b92915050565b6000602082840312156104bf576104be6106d2565b5b60006104cd8482850161047f565b91505092915050565b6000602082840312156104ec576104eb6106d2565b5b60006104fa84828501610494565b91505092915050565b61050c8161065b565b82525050565b61051b8161066d565b82525050565b600061052e600f8361064a565b9150610539826106d7565b602082019050919050565b6000610551601a8361064a565b915061055c82610700565b602082019050919050565b600061057460168361064a565b915061057f82610729565b602082019050919050565b61059381610699565b82525050565b60006020820190506105ae6000830184610503565b92915050565b60006020820190506105c96000830184610512565b92915050565b600060208201905081810360008301526105e881610521565b9050919050565b6000602082019050818103600083015261060881610544565b9050919050565b6000602082019050818103600083015261062881610567565b9050919050565b6000602082019050610644600083018461058a565b92915050565b600082825260208201905092915050565b600061066682610679565b9050919050565b60008115159050919050565b600073ffffffffffffffffffffffffffffffffffffffff82169050919050565b6000819050919050565b7f4e487b7100000000000000000000000000000000000000000000000000000000600052603260045260246000fd5b600080fd5b7f496e76616c696420616464726573730000000000000000000000000000000000600082015250565b7f4164647265737320616c72656164792072656769737465726564000000000000600082015250565b7f596f7520617265206e6f7420746865206f776e65722e00000000000000000000600082015250565b61075b8161065b565b811461076657600080fd5b50565b61077281610699565b811461077d57600080fd5b5056fea26469706673582212203d23943d3e28efdc42f34d087e5eee0a89386baf52f8100e5e9a34620a3ac0f264736f6c63430008070033",
  "immutableReferences": {},
  "source": "// SPDX-License-Identifier: MIT\r\n\r\npragma solidity ^0.8.0;\r\n\r\nimport \"./Ownable.sol\";\r\nimport \"@openzeppelin/contracts/utils/structs/EnumerableSet.sol\";\r\n\r\ncontract AuthoritiesContract is Ownable {\r\n\r\n  using EnumerableSet for EnumerableSet.AddressSet;\r\n\r\n  EnumerableSet.AddressSet authorities;\r\n\r\n  event AuthorityRegistered (\r\n    address indexed addr\r\n  );\r\n\r\n  constructor() {\r\n    registerNewAuthority(owner);\r\n  }\r\n\r\n  modifier onlyAuthority() {\r\n    require(checkIfRegistered(msg.sender) == true, \"Only a registered authority account can carry out this action\");\r\n    _;\r\n  }\r\n\r\n  function registerNewAuthority(address _addr) public onlyOwner {\r\n    require(_addr != address(0), \"Invalid address\");\r\n    require(authorities.add(_addr) == true, \"Address already registered\");\r\n    emit AuthorityRegistered(_addr);\r\n  }\r\n\r\n  function getAuthorityCount() public view returns(uint) {\r\n    return authorities.length();\r\n  }\r\n\r\n  function getAuthorityByIndex(uint _index) public view returns (address addr) {\r\n    return authorities.at(_index);\r\n  }\r\n\r\n  function checkIfRegistered(address _addr) public view returns (bool) {\r\n    return authorities.contains(_addr);\r\n  }\r\n}\r\n",
  "sourcePath": "C:\\Users\\Dharmveer\\Documents\\Projects\\CertiBlocks\\contracts\\Authorities.sol",
  "compiler": {
    "name": "solc",
    "version": "0.8.7+commit.e28d00a7.Emscripten.clang"
  },
  "schemaVersion": "3.4.3",
  "updatedAt": "2022-01-05T14:06:26.855Z",
  "devdoc": {
    "kind": "dev",
    "methods": {},
    "version": 1
  },
  "userdoc": {
    "kind": "user",
    "methods": {},
    "version": 1
  }
}