{
  "contractName": "CertiContract",
  "abi": [
    {
      "anonymous": false,
      "inputs": [
        {
          "indexed": true,
          "internalType": "address",
          "name": "addr",
          "type": "address"
        }
      ],
      "name": "AuthorityRegistered",
      "type": "event"
    },
    {
      "anonymous": false,
      "inputs": [
        {
          "indexed": true,
          "internalType": "address",
          "name": "studAddr",
          "type": "address"
        },
        {
          "indexed": true,
          "internalType": "address",
          "name": "providerAddr",
          "type": "address"
        },
        {
          "indexed": false,
          "internalType": "bytes32",
          "name": "certId",
          "type": "bytes32"
        },
        {
          "indexed": false,
          "internalType": "uint256",
          "name": "timestamp",
          "type": "uint256"
        },
        {
          "indexed": true,
          "internalType": "string",
          "name": "courseName",
          "type": "string"
        }
      ],
      "name": "CertificateGenerated",
      "type": "event"
    },
    {
      "inputs": [
        {
          "internalType": "bytes32",
          "name": "",
          "type": "bytes32"
        }
      ],
      "name": "certificateInfo",
      "outputs": [
        {
          "internalType": "bytes32",
          "name": "certificateId",
          "type": "bytes32"
        },
        {
          "internalType": "address",
          "name": "studentAddr",
          "type": "address"
        },
        {
          "internalType": "address",
          "name": "certProviderAddr",
          "type": "address"
        },
        {
          "internalType": "uint256",
          "name": "marks",
          "type": "uint256"
        },
        {
          "internalType": "uint256",
          "name": "totalMarks",
          "type": "uint256"
        },
        {
          "internalType": "uint256",
          "name": "timestamp",
          "type": "uint256"
        },
        {
          "internalType": "string",
          "name": "courseName",
          "type": "string"
        },
        {
          "internalType": "string",
          "name": "studentName",
          "type": "string"
        }
      ],
      "stateMutability": "view",
      "type": "function"
    },
    {
      "inputs": [
        {
          "internalType": "address",
          "name": "_addr",
          "type": "address"
        }
      ],
      "name": "checkIfRegistered",
      "outputs": [
        {
          "internalType": "bool",
          "name": "",
          "type": "bool"
        }
      ],
      "stateMutability": "view",
      "type": "function"
    },
    {
      "inputs": [
        {
          "internalType": "uint256",
          "name": "_index",
          "type": "uint256"
        }
      ],
      "name": "getAuthorityByIndex",
      "outputs": [
        {
          "internalType": "address",
          "name": "addr",
          "type": "address"
        }
      ],
      "stateMutability": "view",
      "type": "function"
    },
    {
      "inputs": [],
      "name": "getAuthorityCount",
      "outputs": [
        {
          "internalType": "uint256",
          "name": "",
          "type": "uint256"
        }
      ],
      "stateMutability": "view",
      "type": "function"
    },
    {
      "inputs": [],
      "name": "owner",
      "outputs": [
        {
          "internalType": "address",
          "name": "",
          "type": "address"
        }
      ],
      "stateMutability": "view",
      "type": "function"
    },
    {
      "inputs": [
        {
          "internalType": "address",
          "name": "_addr",
          "type": "address"
        }
      ],
      "name": "registerNewAuthority",
      "outputs": [],
      "stateMutability": "nonpayable",
      "type": "function"
    },
    {
      "inputs": [
        {
          "internalType": "bytes32",
          "name": "_id",
          "type": "bytes32"
        },
        {
          "internalType": "address",
          "name": "_studAddr",
          "type": "address"
        },
        {
          "internalType": "uint256",
          "name": "_marks",
          "type": "uint256"
        },
        {
          "internalType": "uint256",
          "name": "_totalMarks",
          "type": "uint256"
        },
        {
          "internalType": "string",
          "name": "_course",
          "type": "string"
        },
        {
          "internalType": "string",
          "name": "_studName",
          "type": "string"
        }
      ],
      "name": "certify",
      "outputs": [],
      "stateMutability": "nonpayable",
      "type": "function"
    },
    {
      "inputs": [],
      "name": "getCertificateCount",
      "outputs": [
        {
          "internalType": "uint256",
          "name": "",
          "type": "uint256"
        }
      ],
      "stateMutability": "view",
      "type": "function"
    },
    {
      "inputs": [
        {
          "internalType": "uint256",
          "name": "_index",
          "type": "uint256"
        }
      ],
      "name": "getCertificateInfoByIndex",
      "outputs": [
        {
          "internalType": "bytes32",
          "name": "certificateId",
          "type": "bytes32"
        },
        {
          "internalType": "address",
          "name": "studentAddr",
          "type": "address"
        },
        {
          "internalType": "address",
          "name": "certProviderAddr",
          "type": "address"
        },
        {
          "internalType": "uint256",
          "name": "marks",
          "type": "uint256"
        },
        {
          "internalType": "uint256",
          "name": "totalMarks",
          "type": "uint256"
        },
        {
          "internalType": "uint256",
          "name": "timestamp",
          "type": "uint256"
        },
        {
          "internalType": "string",
          "name": "courseName",
          "type": "string"
        },
        {
          "internalType": "string",
          "name": "studentName",
          "type": "string"
        }
      ],
      "stateMutability": "view",
      "type": "function"
    },
    {
      "inputs": [
        {
          "internalType": "bytes32",
          "name": "_id",
          "type": "bytes32"
        }
      ],
      "name": "checkCertificateProvided",
      "outputs": [
        {
          "internalType": "bool",
          "name": "",
          "type": "bool"
        }
      ],
      "stateMutability": "view",
      "type": "function"
    }
  ],
  "bytecode": "0x60806040523480156200001157600080fd5b50336000806101000a81548173ffffffffffffffffffffffffffffffffffffffff021916908373ffffffffffffffffffffffffffffffffffffffff1602179055506200008360008054906101000a900473ffffffffffffffffffffffffffffffffffffffff166200008960201b60201c565b62000473565b60008054906101000a900473ffffffffffffffffffffffffffffffffffffffff1673ffffffffffffffffffffffffffffffffffffffff163373ffffffffffffffffffffffffffffffffffffffff16146200011a576040517f08c379a00000000000000000000000000000000000000000000000000000000081526004016200011190620003c5565b60405180910390fd5b600073ffffffffffffffffffffffffffffffffffffffff168173ffffffffffffffffffffffffffffffffffffffff1614156200018d576040517f08c379a0000000000000000000000000000000000000000000000000000000008152600401620001849062000381565b60405180910390fd5b60011515620001ac8260016200023760201b62000c701790919060201c565b151514620001f1576040517f08c379a0000000000000000000000000000000000000000000000000000000008152600401620001e890620003a3565b60405180910390fd5b8073ffffffffffffffffffffffffffffffffffffffff167f8ec6b4c704da9ea0a8bd9196f71626ec32c89805f3ff10486a6478353ef1cb3460405160405180910390a250565b600062000267836000018373ffffffffffffffffffffffffffffffffffffffff1660001b6200026f60201b60201c565b905092915050565b6000620002838383620002e960201b60201c565b620002de578260000182908060018154018082558091505060019003906000526020600020016000909190919091505582600001805490508360010160008481526020019081526020016000208190555060019050620002e3565b600090505b92915050565b600080836001016000848152602001908152602001600020541415905092915050565b60006200031b600f83620003e7565b91506200032882620003f8565b602082019050919050565b600062000342601a83620003e7565b91506200034f8262000421565b602082019050919050565b600062000369601683620003e7565b915062000376826200044a565b602082019050919050565b600060208201905081810360008301526200039c816200030c565b9050919050565b60006020820190508181036000830152620003be8162000333565b9050919050565b60006020820190508181036000830152620003e0816200035a565b9050919050565b600082825260208201905092915050565b7f496e76616c696420616464726573730000000000000000000000000000000000600082015250565b7f4164647265737320616c72656164792072656769737465726564000000000000600082015250565b7f596f7520617265206e6f7420746865206f776e65722e00000000000000000000600082015250565b611a4880620004836000396000f3fe608060405234801561001057600080fd5b506004361061009e5760003560e01c80634b122c8f116100665780634b122c8f146101725780638809f727146101a95780638da5cb5b146101c7578063a40dd1bc146101e5578063af64e735146102035761009e565b80631a8c60b5146100a35780632c7f149c146100da5780634317577a1461010a57806349363909146101265780634973a55f14610156575b600080fd5b6100bd60048036038101906100b8919061110d565b610233565b6040516100d198979695949392919061138b565b60405180910390f35b6100f460048036038101906100ef919061101b565b610454565b6040516101019190611370565b60405180910390f35b610124600480360381019061011f9190610fee565b610471565b005b610140600480360381019061013b919061110d565b61060f565b60405161014d9190611355565b60405180910390f35b610170600480360381019061016b9190611048565b61062c565b005b61018c6004803603810190610187919061101b565b610a75565b6040516101a098979695949392919061138b565b60405180910390f35b6101b1610c0d565b6040516101be9190611580565b60405180910390f35b6101cf610c1e565b6040516101dc9190611355565b60405180910390f35b6101ed610c42565b6040516101fa9190611580565b60405180910390f35b61021d60048036038101906102189190610fee565b610c53565b60405161022a9190611370565b60405180910390f35b600080600080600080606080610247610c0d565b89101561040c576000600560006102688c6003610ca090919063ffffffff16565b8152602001908152602001600020905080600001548160010160009054906101000a900473ffffffffffffffffffffffffffffffffffffffff168260020160009054906101000a900473ffffffffffffffffffffffffffffffffffffffff1683600301548460040154856005015486600601876007018180546102ea906116ac565b80601f0160208091040260200160405190810160405280929190818152602001828054610316906116ac565b80156103635780601f1061033857610100808354040283529160200191610363565b820191906000526020600020905b81548152906001019060200180831161034657829003601f168201915b50505050509150808054610376906116ac565b80601f01602080910402602001604051908101604052809291908181526020018280546103a2906116ac565b80156103ef5780601f106103c4576101008083540402835291602001916103ef565b820191906000526020600020905b8154815290600101906020018083116103d257829003601f168201915b505050505090509850985098509850985098509850985050610449565b6000801b60008060008060006040518060200160405280600081525060405180602001604052806000815250975097509750975097509750975097505b919395975091939597565b600061046a826003610cb790919063ffffffff16565b9050919050565b60008054906101000a900473ffffffffffffffffffffffffffffffffffffffff1673ffffffffffffffffffffffffffffffffffffffff163373ffffffffffffffffffffffffffffffffffffffff16146104ff576040517f08c379a00000000000000000000000000000000000000000000000000000000081526004016104f690611560565b60405180910390fd5b600073ffffffffffffffffffffffffffffffffffffffff168173ffffffffffffffffffffffffffffffffffffffff16141561056f576040517f08c379a000000000000000000000000000000000000000000000000000000000815260040161056690611440565b60405180910390fd5b60011515610587826001610c7090919063ffffffff16565b1515146105c9576040517f08c379a00000000000000000000000000000000000000000000000000000000081526004016105c0906114a0565b60405180910390fd5b8073ffffffffffffffffffffffffffffffffffffffff167f8ec6b4c704da9ea0a8bd9196f71626ec32c89805f3ff10486a6478353ef1cb3460405160405180910390a250565b6000610625826001610cce90919063ffffffff16565b9050919050565b6001151561063933610c53565b15151461067b576040517f08c379a0000000000000000000000000000000000000000000000000000000008152600401610672906114e0565b60405180910390fd5b60008660001c14156106c2576040517f08c379a00000000000000000000000000000000000000000000000000000000081526004016106b990611460565b60405180910390fd5b600015156106cf86610c53565b151514610711576040517f08c379a0000000000000000000000000000000000000000000000000000000008152600401610708906114c0565b60405180910390fd5b6000825111610755576040517f08c379a000000000000000000000000000000000000000000000000000000000815260040161074c90611500565b60405180910390fd5b6000815111610799576040517f08c379a000000000000000000000000000000000000000000000000000000000815260040161079090611520565b60405180910390fd5b828411156107dc576040517f08c379a00000000000000000000000000000000000000000000000000000000081526004016107d390611480565b60405180910390fd5b600115156107f4876003610ce890919063ffffffff16565b151514610836576040517f08c379a000000000000000000000000000000000000000000000000000000000815260040161082d90611540565b60405180910390fd5b61083e610e28565b8681600001818152505085816020019073ffffffffffffffffffffffffffffffffffffffff16908173ffffffffffffffffffffffffffffffffffffffff168152505033816040019073ffffffffffffffffffffffffffffffffffffffff16908173ffffffffffffffffffffffffffffffffffffffff16815250508481606001818152505083816080018181525050428160a0018181525050828160c00181905250818160e0018190525080600560008981526020019081526020016000206000820151816000015560208201518160010160006101000a81548173ffffffffffffffffffffffffffffffffffffffff021916908373ffffffffffffffffffffffffffffffffffffffff16021790555060408201518160020160006101000a81548173ffffffffffffffffffffffffffffffffffffffff021916908373ffffffffffffffffffffffffffffffffffffffff160217905550606082015181600301556080820151816004015560a0820151816005015560c08201518160060190805190602001906109ce929190610e9c565b5060e08201518160070190805190602001906109eb929190610e9c565b50905050826040516109fd919061133e565b60405180910390203373ffffffffffffffffffffffffffffffffffffffff168773ffffffffffffffffffffffffffffffffffffffff167fa96629d3643007c035d6d56f8e12385e6a1e365b9c5db836f895b37fdb4c52e58a42604051610a64929190611417565b60405180910390a450505050505050565b60056020528060005260406000206000915090508060000154908060010160009054906101000a900473ffffffffffffffffffffffffffffffffffffffff16908060020160009054906101000a900473ffffffffffffffffffffffffffffffffffffffff1690806003015490806004015490806005015490806006018054610afc906116ac565b80601f0160208091040260200160405190810160405280929190818152602001828054610b28906116ac565b8015610b755780601f10610b4a57610100808354040283529160200191610b75565b820191906000526020600020905b815481529060010190602001808311610b5857829003601f168201915b505050505090806007018054610b8a906116ac565b80601f0160208091040260200160405190810160405280929190818152602001828054610bb6906116ac565b8015610c035780601f10610bd857610100808354040283529160200191610c03565b820191906000526020600020905b815481529060010190602001808311610be657829003601f168201915b5050505050905088565b6000610c196003610cff565b905090565b60008054906101000a900473ffffffffffffffffffffffffffffffffffffffff1681565b6000610c4e6001610d14565b905090565b6000610c69826001610d2990919063ffffffff16565b9050919050565b6000610c98836000018373ffffffffffffffffffffffffffffffffffffffff1660001b610d59565b905092915050565b6000610caf8360000183610dc9565b905092915050565b6000610cc68360000183610df4565b905092915050565b6000610cdd8360000183610dc9565b60001c905092915050565b6000610cf78360000183610d59565b905092915050565b6000610d0d82600001610e17565b9050919050565b6000610d2282600001610e17565b9050919050565b6000610d51836000018373ffffffffffffffffffffffffffffffffffffffff1660001b610df4565b905092915050565b6000610d658383610df4565b610dbe578260000182908060018154018082558091505060019003906000526020600020016000909190919091505582600001805490508360010160008481526020019081526020016000208190555060019050610dc3565b600090505b92915050565b6000826000018281548110610de157610de061173e565b5b9060005260206000200154905092915050565b600080836001016000848152602001908152602001600020541415905092915050565b600081600001805490509050919050565b60405180610100016040528060008019168152602001600073ffffffffffffffffffffffffffffffffffffffff168152602001600073ffffffffffffffffffffffffffffffffffffffff16815260200160008152602001600081526020016000815260200160608152602001606081525090565b828054610ea8906116ac565b90600052602060002090601f016020900481019282610eca5760008555610f11565b82601f10610ee357805160ff1916838001178555610f11565b82800160010185558215610f11579182015b82811115610f10578251825591602001919060010190610ef5565b5b509050610f1e9190610f22565b5090565b5b80821115610f3b576000816000905550600101610f23565b5090565b6000610f52610f4d846115c0565b61159b565b905082815260208101848484011115610f6e57610f6d6117a1565b5b610f7984828561166a565b509392505050565b600081359050610f90816119cd565b92915050565b600081359050610fa5816119e4565b92915050565b600082601f830112610fc057610fbf61179c565b5b8135610fd0848260208601610f3f565b91505092915050565b600081359050610fe8816119fb565b92915050565b600060208284031215611004576110036117ab565b5b600061101284828501610f81565b91505092915050565b600060208284031215611031576110306117ab565b5b600061103f84828501610f96565b91505092915050565b60008060008060008060c08789031215611065576110646117ab565b5b600061107389828a01610f96565b965050602061108489828a01610f81565b955050604061109589828a01610fd9565b94505060606110a689828a01610fd9565b935050608087013567ffffffffffffffff8111156110c7576110c66117a6565b5b6110d389828a01610fab565b92505060a087013567ffffffffffffffff8111156110f4576110f36117a6565b5b61110089828a01610fab565b9150509295509295509295565b600060208284031215611123576111226117ab565b5b600061113184828501610fd9565b91505092915050565b61114381611618565b82525050565b6111528161162a565b82525050565b61116181611636565b82525050565b6000611172826115f1565b61117c81856115fc565b935061118c818560208601611679565b611195816117b0565b840191505092915050565b60006111ab826115f1565b6111b5818561160d565b93506111c5818560208601611679565b80840191505092915050565b60006111de600f836115fc565b91506111e9826117c1565b602082019050919050565b60006112016016836115fc565b915061120c826117ea565b602082019050919050565b6000611224602d836115fc565b915061122f82611813565b604082019050919050565b6000611247601a836115fc565b915061125282611862565b602082019050919050565b600061126a6024836115fc565b91506112758261188b565b604082019050919050565b600061128d603d836115fc565b9150611298826118da565b604082019050919050565b60006112b06012836115fc565b91506112bb82611929565b602082019050919050565b60006112d36013836115fc565b91506112de82611952565b602082019050919050565b60006112f6601e836115fc565b91506113018261197b565b602082019050919050565b60006113196016836115fc565b9150611324826119a4565b602082019050919050565b61133881611660565b82525050565b600061134a82846111a0565b915081905092915050565b600060208201905061136a600083018461113a565b92915050565b60006020820190506113856000830184611149565b92915050565b6000610100820190506113a1600083018b611158565b6113ae602083018a61113a565b6113bb604083018961113a565b6113c8606083018861132f565b6113d5608083018761132f565b6113e260a083018661132f565b81810360c08301526113f48185611167565b905081810360e08301526114088184611167565b90509998505050505050505050565b600060408201905061142c6000830185611158565b611439602083018461132f565b9392505050565b60006020820190508181036000830152611459816111d1565b9050919050565b60006020820190508181036000830152611479816111f4565b9050919050565b6000602082019050818103600083015261149981611217565b9050919050565b600060208201905081810360008301526114b98161123a565b9050919050565b600060208201905081810360008301526114d98161125d565b9050919050565b600060208201905081810360008301526114f981611280565b9050919050565b60006020820190508181036000830152611519816112a3565b9050919050565b60006020820190508181036000830152611539816112c6565b9050919050565b60006020820190508181036000830152611559816112e9565b9050919050565b600060208201905081810360008301526115798161130c565b9050919050565b6000602082019050611595600083018461132f565b92915050565b60006115a56115b6565b90506115b182826116de565b919050565b6000604051905090565b600067ffffffffffffffff8211156115db576115da61176d565b5b6115e4826117b0565b9050602081019050919050565b600081519050919050565b600082825260208201905092915050565b600081905092915050565b600061162382611640565b9050919050565b60008115159050919050565b6000819050919050565b600073ffffffffffffffffffffffffffffffffffffffff82169050919050565b6000819050919050565b82818337600083830152505050565b60005b8381101561169757808201518184015260208101905061167c565b838111156116a6576000848401525b50505050565b600060028204905060018216806116c457607f821691505b602082108114156116d8576116d761170f565b5b50919050565b6116e7826117b0565b810181811067ffffffffffffffff821117156117065761170561176d565b5b80604052505050565b7f4e487b7100000000000000000000000000000000000000000000000000000000600052602260045260246000fd5b7f4e487b7100000000000000000000000000000000000000000000000000000000600052603260045260246000fd5b7f4e487b7100000000000000000000000000000000000000000000000000000000600052604160045260246000fd5b600080fd5b600080fd5b600080fd5b600080fd5b6000601f19601f8301169050919050565b7f496e76616c696420616464726573730000000000000000000000000000000000600082015250565b7f496e76616c696420636572746966696361746520696400000000000000000000600082015250565b7f4f627461696e6564206d61726b732063616e2774206265206d6f72652074686160008201527f6e20746f74616c206d61726b7300000000000000000000000000000000000000602082015250565b7f4164647265737320616c72656164792072656769737465726564000000000000600082015250565b7f417574686f72697479206163636f756e742063616e277420626520636572746960008201527f6669656400000000000000000000000000000000000000000000000000000000602082015250565b7f4f6e6c792061207265676973746572656420617574686f72697479206163636f60008201527f756e742063616e206361727279206f7574207468697320616374696f6e000000602082015250565b7f456d70747920636f75727365206e616d65210000000000000000000000000000600082015250565b7f456d7074792073747564656e74206e616d652100000000000000000000000000600082015250565b7f436572746966696361746520494420616c72656164792070726573656e740000600082015250565b7f596f7520617265206e6f7420746865206f776e65722e00000000000000000000600082015250565b6119d681611618565b81146119e157600080fd5b50565b6119ed81611636565b81146119f857600080fd5b50565b611a0481611660565b8114611a0f57600080fd5b5056fea26469706673582212204aeca8b8a5e9b3489ee4ed8dcb9ab583f6470b2563dc8a04e0c13ab8500b728364736f6c63430008070033",
  "immutableReferences": {},
  "source": "// SPDX-License-Identifier: MIT\r\npragma solidity ^0.8.0;\r\n\r\nimport \"./Authorities.sol\";\r\nimport \"@openzeppelin/contracts/utils/structs/EnumerableSet.sol\";\r\n\r\ncontract CertiContract is AuthoritiesContract {\r\n\r\n  using EnumerableSet for EnumerableSet.Bytes32Set;\r\n\r\n  struct CertificateInfo {\r\n    bytes32 certificateId;\r\n    address studentAddr;\r\n    address certProviderAddr;\r\n    uint marks;\r\n    uint totalMarks;\r\n    uint timestamp;\r\n    string courseName;\r\n    string studentName;\r\n  }\r\n\r\n  EnumerableSet.Bytes32Set certificates;\r\n  mapping (bytes32 => CertificateInfo) public certificateInfo;\r\n\r\n  event CertificateGenerated (\r\n    address indexed studAddr,\r\n    address indexed providerAddr,\r\n    bytes32 certId,\r\n    uint timestamp,\r\n    string indexed courseName\r\n  );\r\n\r\n  function certify(\r\n    bytes32 _id,\r\n    address _studAddr,\r\n    uint _marks,\r\n    uint _totalMarks,\r\n    string memory _course,\r\n    string memory _studName\r\n  ) public onlyAuthority {\r\n    require(uint(_id) != 0, \"Invalid certificate id\");\r\n    require(AuthoritiesContract.checkIfRegistered(_studAddr) == false, \"Authority account can't be certified\");\r\n    require(bytes(_course).length > 0, \"Empty course name!\");\r\n    require(bytes(_studName).length > 0, \"Empty student name!\");\r\n    require(_marks <= _totalMarks, \"Obtained marks can't be more than total marks\");\r\n\r\n    require(certificates.add(_id) == true, \"Certificate ID already present\");\r\n    CertificateInfo memory _certificate;\r\n    _certificate.certificateId = _id;\r\n    _certificate.studentAddr = _studAddr;\r\n    _certificate.certProviderAddr = msg.sender;\r\n    _certificate.marks = _marks;\r\n    _certificate.totalMarks = _totalMarks;\r\n    _certificate.timestamp = block.timestamp;\r\n    _certificate.courseName = _course;\r\n    _certificate.studentName = _studName;\r\n    certificateInfo[_id] = _certificate;\r\n\r\n    emit CertificateGenerated(_studAddr, msg.sender, _id, block.timestamp, _course);\r\n  }\r\n\r\n  function getCertificateCount() public view returns(uint) {\r\n    return certificates.length();\r\n  }\r\n\r\n  function getCertificateInfoByIndex(uint _index) public view\r\n  returns(\r\n    bytes32 certificateId,\r\n    address studentAddr,\r\n    address certProviderAddr,\r\n    uint marks,\r\n    uint totalMarks,\r\n    uint timestamp,\r\n    string memory courseName,\r\n    string memory studentName\r\n  )\r\n  {\r\n    if (_index < getCertificateCount()) {\r\n      CertificateInfo storage cert = certificateInfo[certificates.at(_index)];\r\n      return (\r\n        cert.certificateId,\r\n        cert.studentAddr,\r\n        cert.certProviderAddr,\r\n        cert.marks,\r\n        cert.totalMarks,\r\n        cert.timestamp,\r\n        cert.courseName,\r\n        cert.studentName\r\n      );\r\n    }\r\n    else {\r\n      return (bytes32(0), address(0), address(0), 0, 0, 0, \"\", \"\");\r\n    }\r\n  }\r\n\r\n  function checkCertificateProvided(bytes32 _id) public view returns (bool) {\r\n    return certificates.contains(_id);\r\n  }\r\n}\r\n",
  "sourcePath": "C:\\Users\\Dharmveer\\Documents\\Projects\\CertiBlocks\\contracts\\CertiContract.sol",
  "compiler": {
    "name": "solc",
    "version": "0.8.7+commit.e28d00a7.Emscripten.clang"
  },
  "schemaVersion": "3.4.3",
  "updatedAt": "2022-01-05T14:06:26.900Z",
  "devdoc": {
    "kind": "dev",
    "methods": {},
    "version": 1
  },
  "userdoc": {
    "kind": "user",
    "methods": {},
    "version": 1
  }
}