{
  "contractName": "CertiContract",
  "abi": [
    {
      "anonymous": false,
      "inputs": [
        {
          "indexed": true,
          "internalType": "address",
          "name": "studAddr",
          "type": "address"
        },
        {
          "indexed": true,
          "internalType": "address",
          "name": "providerAddr",
          "type": "address"
        },
        {
          "indexed": false,
          "internalType": "bytes32",
          "name": "certId",
          "type": "bytes32"
        },
        {
          "indexed": false,
          "internalType": "uint256",
          "name": "timestamp",
          "type": "uint256"
        },
        {
          "indexed": true,
          "internalType": "string",
          "name": "courseName",
          "type": "string"
        }
      ],
      "name": "Certify",
      "type": "event"
    },
    {
      "anonymous": false,
      "inputs": [
        {
          "indexed": true,
          "internalType": "address",
          "name": "addr",
          "type": "address"
        },
        {
          "indexed": true,
          "internalType": "address",
          "name": "byAddr",
          "type": "address"
        },
        {
          "indexed": false,
          "internalType": "string",
          "name": "name",
          "type": "string"
        }
      ],
      "name": "StudentRegistered",
      "type": "event"
    },
    {
      "anonymous": false,
      "inputs": [
        {
          "indexed": true,
          "internalType": "address",
          "name": "addr",
          "type": "address"
        },
        {
          "indexed": false,
          "internalType": "string",
          "name": "name",
          "type": "string"
        }
      ],
      "name": "TeacherRegistered",
      "type": "event"
    },
    {
      "inputs": [
        {
          "internalType": "bytes32",
          "name": "",
          "type": "bytes32"
        }
      ],
      "name": "certificateInfo",
      "outputs": [
        {
          "internalType": "bytes32",
          "name": "certificateId",
          "type": "bytes32"
        },
        {
          "internalType": "address",
          "name": "studentAddr",
          "type": "address"
        },
        {
          "internalType": "address",
          "name": "certProviderAddr",
          "type": "address"
        },
        {
          "internalType": "uint256",
          "name": "marks",
          "type": "uint256"
        },
        {
          "internalType": "uint256",
          "name": "timestamp",
          "type": "uint256"
        },
        {
          "internalType": "string",
          "name": "courseName",
          "type": "string"
        }
      ],
      "stateMutability": "view",
      "type": "function",
      "constant": true
    },
    {
      "inputs": [
        {
          "internalType": "address",
          "name": "_addr",
          "type": "address"
        }
      ],
      "name": "checkStudentRegistered",
      "outputs": [
        {
          "internalType": "bool",
          "name": "",
          "type": "bool"
        }
      ],
      "stateMutability": "view",
      "type": "function",
      "constant": true
    },
    {
      "inputs": [
        {
          "internalType": "address",
          "name": "_addr",
          "type": "address"
        }
      ],
      "name": "checkTeacherRegistered",
      "outputs": [
        {
          "internalType": "bool",
          "name": "",
          "type": "bool"
        }
      ],
      "stateMutability": "view",
      "type": "function",
      "constant": true
    },
    {
      "inputs": [],
      "name": "getStudentCount",
      "outputs": [
        {
          "internalType": "uint256",
          "name": "",
          "type": "uint256"
        }
      ],
      "stateMutability": "view",
      "type": "function",
      "constant": true
    },
    {
      "inputs": [
        {
          "internalType": "uint256",
          "name": "_index",
          "type": "uint256"
        }
      ],
      "name": "getStudentInfoByIndex",
      "outputs": [
        {
          "internalType": "address",
          "name": "addr",
          "type": "address"
        },
        {
          "internalType": "string",
          "name": "name",
          "type": "string"
        }
      ],
      "stateMutability": "view",
      "type": "function",
      "constant": true
    },
    {
      "inputs": [
        {
          "internalType": "address",
          "name": "_addr",
          "type": "address"
        }
      ],
      "name": "getStudentsInfoByAddress",
      "outputs": [
        {
          "internalType": "address",
          "name": "addr",
          "type": "address"
        },
        {
          "internalType": "string",
          "name": "name",
          "type": "string"
        }
      ],
      "stateMutability": "view",
      "type": "function",
      "constant": true
    },
    {
      "inputs": [],
      "name": "getTeacherCount",
      "outputs": [
        {
          "internalType": "uint256",
          "name": "",
          "type": "uint256"
        }
      ],
      "stateMutability": "view",
      "type": "function",
      "constant": true
    },
    {
      "inputs": [
        {
          "internalType": "address",
          "name": "_addr",
          "type": "address"
        }
      ],
      "name": "getTeacherInfoByAddress",
      "outputs": [
        {
          "internalType": "address",
          "name": "addr",
          "type": "address"
        },
        {
          "internalType": "string",
          "name": "name",
          "type": "string"
        }
      ],
      "stateMutability": "view",
      "type": "function",
      "constant": true
    },
    {
      "inputs": [
        {
          "internalType": "uint256",
          "name": "_index",
          "type": "uint256"
        }
      ],
      "name": "getTeacherInfoByIndex",
      "outputs": [
        {
          "internalType": "address",
          "name": "addr",
          "type": "address"
        },
        {
          "internalType": "string",
          "name": "name",
          "type": "string"
        }
      ],
      "stateMutability": "view",
      "type": "function",
      "constant": true
    },
    {
      "inputs": [],
      "name": "owner",
      "outputs": [
        {
          "internalType": "address",
          "name": "",
          "type": "address"
        }
      ],
      "stateMutability": "view",
      "type": "function",
      "constant": true
    },
    {
      "inputs": [
        {
          "internalType": "address",
          "name": "_addr",
          "type": "address"
        },
        {
          "internalType": "string",
          "name": "_name",
          "type": "string"
        }
      ],
      "name": "registerNewStudent",
      "outputs": [],
      "stateMutability": "nonpayable",
      "type": "function"
    },
    {
      "inputs": [
        {
          "internalType": "address",
          "name": "_addr",
          "type": "address"
        },
        {
          "internalType": "string",
          "name": "_name",
          "type": "string"
        }
      ],
      "name": "registerNewTeacher",
      "outputs": [],
      "stateMutability": "nonpayable",
      "type": "function"
    },
    {
      "inputs": [
        {
          "internalType": "bytes32",
          "name": "_id",
          "type": "bytes32"
        },
        {
          "internalType": "address",
          "name": "_stud",
          "type": "address"
        },
        {
          "internalType": "uint256",
          "name": "_marks",
          "type": "uint256"
        },
        {
          "internalType": "string",
          "name": "_course",
          "type": "string"
        }
      ],
      "name": "certifyStudent",
      "outputs": [],
      "stateMutability": "nonpayable",
      "type": "function"
    },
    {
      "inputs": [],
      "name": "getCertificateCount",
      "outputs": [
        {
          "internalType": "uint256",
          "name": "",
          "type": "uint256"
        }
      ],
      "stateMutability": "view",
      "type": "function",
      "constant": true
    },
    {
      "inputs": [
        {
          "internalType": "uint256",
          "name": "_index",
          "type": "uint256"
        }
      ],
      "name": "getCertificateInfoByIndex",
      "outputs": [
        {
          "internalType": "bytes32",
          "name": "certificateId",
          "type": "bytes32"
        },
        {
          "internalType": "address",
          "name": "studentAddr",
          "type": "address"
        },
        {
          "internalType": "address",
          "name": "certProviderAddr",
          "type": "address"
        },
        {
          "internalType": "uint256",
          "name": "marks",
          "type": "uint256"
        },
        {
          "internalType": "uint256",
          "name": "timestamp",
          "type": "uint256"
        },
        {
          "internalType": "string",
          "name": "courseName",
          "type": "string"
        }
      ],
      "stateMutability": "view",
      "type": "function",
      "constant": true
    },
    {
      "inputs": [
        {
          "internalType": "bytes32",
          "name": "_id",
          "type": "bytes32"
        }
      ],
      "name": "checkCertificateProvided",
      "outputs": [
        {
          "internalType": "bool",
          "name": "",
          "type": "bool"
        }
      ],
      "stateMutability": "view",
      "type": "function",
      "constant": true
    }
  ],
  "bytecode": "0x608060405234801561001057600080fd5b50336000806101000a81548173ffffffffffffffffffffffffffffffffffffffff021916908373ffffffffffffffffffffffffffffffffffffffff160217905550612220806100606000396000f3fe608060405234801561001057600080fd5b50600436106101005760003560e01c80638107b010116100975780638da5cb5b116100665780638da5cb5b146102f1578063b6f698801461030f578063f92d05c91461032d578063fd59f7ef1461035e57610100565b80638107b010146102555780638809f7271461027157806388b45a6c1461028f5780638d1428b7146102c057610100565b806341e0c407116100d357806341e0c407146101b6578063423bbd4a146101d45780634b122c8f146102045780634ba4a5d31461023957610100565b806304f00360146101055780630b009f6d146101355780631a8c60b5146101515780632c7f149c14610186575b600080fd5b61011f600480360381019061011a91906117ca565b61038f565b60405161012c9190611b96565b60405180910390f35b61014f600480360381019061014a91906117f7565b6103ac565b005b61016b60048036038101906101669190611903565b610671565b60405161017d96959493929190611bb1565b60405180910390f35b6101a0600480360381019061019b9190611853565b6107df565b6040516101ad9190611b96565b60405180910390f35b6101be6107fc565b6040516101cb9190611da4565b60405180910390f35b6101ee60048036038101906101e991906117ca565b61080d565b6040516101fb9190611b96565b60405180910390f35b61021e60048036038101906102199190611853565b61082a565b60405161023096959493929190611bb1565b60405180910390f35b610253600480360381019061024e9190611880565b61092e565b005b61026f600480360381019061026a91906117f7565b610ceb565b005b610279610f81565b6040516102869190611da4565b60405180910390f35b6102a960048036038101906102a49190611903565b610f92565b6040516102b7929190611b66565b60405180910390f35b6102da60048036038101906102d591906117ca565b6110d6565b6040516102e8929190611b66565b60405180910390f35b6102f96111dc565b6040516103069190611b4b565b60405180910390f35b610317611200565b6040516103249190611da4565b60405180910390f35b61034760048036038101906103429190611903565b611211565b604051610355929190611b66565b60405180910390f35b610378600480360381019061037391906117ca565b611355565b604051610386929190611b66565b60405180910390f35b60006103a582600461145b90919063ffffffff16565b9050919050565b60008054906101000a900473ffffffffffffffffffffffffffffffffffffffff1673ffffffffffffffffffffffffffffffffffffffff163373ffffffffffffffffffffffffffffffffffffffff161461043a576040517f08c379a000000000000000000000000000000000000000000000000000000000815260040161043190611d64565b60405180910390fd5b600073ffffffffffffffffffffffffffffffffffffffff168273ffffffffffffffffffffffffffffffffffffffff1614156104aa576040517f08c379a00000000000000000000000000000000000000000000000000000000081526004016104a190611c64565b60405180910390fd5b60008151116104ee576040517f08c379a00000000000000000000000000000000000000000000000000000000081526004016104e590611c84565b60405180910390fd5b6001151561050683600161148b90919063ffffffff16565b151514610548576040517f08c379a000000000000000000000000000000000000000000000000000000000815260040161053f90611ce4565b60405180910390fd5b600060405180604001604052808473ffffffffffffffffffffffffffffffffffffffff16815260200183815250905080600360008573ffffffffffffffffffffffffffffffffffffffff1673ffffffffffffffffffffffffffffffffffffffff16815260200190815260200160002060008201518160000160006101000a81548173ffffffffffffffffffffffffffffffffffffffff021916908373ffffffffffffffffffffffffffffffffffffffff160217905550602082015181600101908051906020019061061a929190611613565b509050508273ffffffffffffffffffffffffffffffffffffffff167f19ebf0e30a8e689d058b16b6b5a058ee1288ae105d904219087073039e0c4ac0836040516106649190611c42565b60405180910390a2505050565b60008060008060006060610683610f81565b8710156107af576000600960006106a48a60076114bb90919063ffffffff16565b8152602001908152602001600020905080600001548160010160009054906101000a900473ffffffffffffffffffffffffffffffffffffffff168260020160009054906101000a900473ffffffffffffffffffffffffffffffffffffffff16836003015484600401548560050180805461071d90611ed0565b80601f016020809104026020016040519081016040528092919081815260200182805461074990611ed0565b80156107965780601f1061076b57610100808354040283529160200191610796565b820191906000526020600020905b81548152906001019060200180831161077957829003601f168201915b50505050509050965096509650965096509650506107d6565b6000801b600080600080604051806020016040528060008152509550955095509550955095505b91939550919395565b60006107f58260076114d290919063ffffffff16565b9050919050565b600061080860046114e9565b905090565b600061082382600161145b90919063ffffffff16565b9050919050565b60096020528060005260406000206000915090508060000154908060010160009054906101000a900473ffffffffffffffffffffffffffffffffffffffff16908060020160009054906101000a900473ffffffffffffffffffffffffffffffffffffffff16908060030154908060040154908060050180546108ab90611ed0565b80601f01602080910402602001604051908101604052809291908181526020018280546108d790611ed0565b80156109245780601f106108f957610100808354040283529160200191610924565b820191906000526020600020905b81548152906001019060200180831161090757829003601f168201915b5050505050905086565b6109373361080d565b610976576040517f08c379a000000000000000000000000000000000000000000000000000000000815260040161096d90611cc4565b60405180910390fd5b60008460001c14156109bd576040517f08c379a00000000000000000000000000000000000000000000000000000000081526004016109b490611ca4565b60405180910390fd5b6109c68361038f565b610a05576040517f08c379a00000000000000000000000000000000000000000000000000000000081526004016109fc90611d44565b60405180910390fd5b6103e8821115610a4a576040517f08c379a0000000000000000000000000000000000000000000000000000000008152600401610a4190611d84565b60405180910390fd5b6000815111610a8e576040517f08c379a0000000000000000000000000000000000000000000000000000000008152600401610a8590611d04565b60405180910390fd5b60011515610aa68560076114fe90919063ffffffff16565b151514610ae8576040517f08c379a0000000000000000000000000000000000000000000000000000000008152600401610adf90611d24565b60405180910390fd5b610af0611699565b8481600001818152505083816020019073ffffffffffffffffffffffffffffffffffffffff16908173ffffffffffffffffffffffffffffffffffffffff168152505033816040019073ffffffffffffffffffffffffffffffffffffffff16908173ffffffffffffffffffffffffffffffffffffffff16815250508281606001818152505042816080018181525050818160a0018190525080600960008781526020019081526020016000206000820151816000015560208201518160010160006101000a81548173ffffffffffffffffffffffffffffffffffffffff021916908373ffffffffffffffffffffffffffffffffffffffff16021790555060408201518160020160006101000a81548173ffffffffffffffffffffffffffffffffffffffff021916908373ffffffffffffffffffffffffffffffffffffffff160217905550606082015181600301556080820151816004015560a0820151816005019080519060200190610c63929190611613565b5090505081604051610c759190611b34565b60405180910390203373ffffffffffffffffffffffffffffffffffffffff168573ffffffffffffffffffffffffffffffffffffffff167f5f1f64114848cec4c7c3b6cc8a899695fe88745ebc215527e57acca2b22ef87f8842604051610cdc929190611c19565b60405180910390a45050505050565b610cf43361080d565b610d33576040517f08c379a0000000000000000000000000000000000000000000000000000000008152600401610d2a90611cc4565b60405180910390fd5b600073ffffffffffffffffffffffffffffffffffffffff168273ffffffffffffffffffffffffffffffffffffffff161415610da3576040517f08c379a0000000000000000000000000000000000000000000000000000000008152600401610d9a90611c64565b60405180910390fd5b6000815111610de7576040517f08c379a0000000000000000000000000000000000000000000000000000000008152600401610dde90611c84565b60405180910390fd5b60011515610dff83600461148b90919063ffffffff16565b151514610e41576040517f08c379a0000000000000000000000000000000000000000000000000000000008152600401610e3890611ce4565b60405180910390fd5b600060405180604001604052808473ffffffffffffffffffffffffffffffffffffffff16815260200183815250905080600660008573ffffffffffffffffffffffffffffffffffffffff1673ffffffffffffffffffffffffffffffffffffffff16815260200190815260200160002060008201518160000160006101000a81548173ffffffffffffffffffffffffffffffffffffffff021916908373ffffffffffffffffffffffffffffffffffffffff1602179055506020820151816001019080519060200190610f13929190611613565b509050503373ffffffffffffffffffffffffffffffffffffffff168373ffffffffffffffffffffffffffffffffffffffff167f25cf26997c32e214b8f52782c9af3df4a7a84a3fe7ab53e87e1b8cb8eaf1b6c784604051610f749190611c42565b60405180910390a3505050565b6000610f8d6007611515565b905090565b60006060610f9e611200565b8310156110ba57600060036000610fbf86600161152a90919063ffffffff16565b73ffffffffffffffffffffffffffffffffffffffff1673ffffffffffffffffffffffffffffffffffffffff16815260200190815260200160002090508060000160009054906101000a900473ffffffffffffffffffffffffffffffffffffffff168160010180805461103090611ed0565b80601f016020809104026020016040519081016040528092919081815260200182805461105c90611ed0565b80156110a95780601f1061107e576101008083540402835291602001916110a9565b820191906000526020600020905b81548152906001019060200180831161108c57829003601f168201915b5050505050905092509250506110d1565b600060405180602001604052806000815250915091505b915091565b600060606000600660008573ffffffffffffffffffffffffffffffffffffffff1673ffffffffffffffffffffffffffffffffffffffff16815260200190815260200160002090508060000160009054906101000a900473ffffffffffffffffffffffffffffffffffffffff168160010180805461115290611ed0565b80601f016020809104026020016040519081016040528092919081815260200182805461117e90611ed0565b80156111cb5780601f106111a0576101008083540402835291602001916111cb565b820191906000526020600020905b8154815290600101906020018083116111ae57829003601f168201915b505050505090509250925050915091565b60008054906101000a900473ffffffffffffffffffffffffffffffffffffffff1681565b600061120c60016114e9565b905090565b6000606061121d6107fc565b8310156113395760006006600061123e86600461152a90919063ffffffff16565b73ffffffffffffffffffffffffffffffffffffffff1673ffffffffffffffffffffffffffffffffffffffff16815260200190815260200160002090508060000160009054906101000a900473ffffffffffffffffffffffffffffffffffffffff16816001018080546112af90611ed0565b80601f01602080910402602001604051908101604052809291908181526020018280546112db90611ed0565b80156113285780601f106112fd57610100808354040283529160200191611328565b820191906000526020600020905b81548152906001019060200180831161130b57829003601f168201915b505050505090509250925050611350565b600060405180602001604052806000815250915091505b915091565b600060606000600360008573ffffffffffffffffffffffffffffffffffffffff1673ffffffffffffffffffffffffffffffffffffffff16815260200190815260200160002090508060000160009054906101000a900473ffffffffffffffffffffffffffffffffffffffff16816001018080546113d190611ed0565b80601f01602080910402602001604051908101604052809291908181526020018280546113fd90611ed0565b801561144a5780601f1061141f5761010080835404028352916020019161144a565b820191906000526020600020905b81548152906001019060200180831161142d57829003601f168201915b505050505090509250925050915091565b6000611483836000018373ffffffffffffffffffffffffffffffffffffffff1660001b611544565b905092915050565b60006114b3836000018373ffffffffffffffffffffffffffffffffffffffff1660001b611567565b905092915050565b60006114ca83600001836115d7565b905092915050565b60006114e18360000183611544565b905092915050565b60006114f782600001611602565b9050919050565b600061150d8360000183611567565b905092915050565b600061152382600001611602565b9050919050565b600061153983600001836115d7565b60001c905092915050565b600080836001016000848152602001908152602001600020541415905092915050565b60006115738383611544565b6115cc5782600001829080600181540180825580915050600190039060005260206000200160009091909190915055826000018054905083600101600084815260200190815260200160002081905550600190506115d1565b600090505b92915050565b60008260000182815481106115ef576115ee611f62565b5b9060005260206000200154905092915050565b600081600001805490509050919050565b82805461161f90611ed0565b90600052602060002090601f0160209004810192826116415760008555611688565b82601f1061165a57805160ff1916838001178555611688565b82800160010185558215611688579182015b8281111561168757825182559160200191906001019061166c565b5b50905061169591906116fe565b5090565b6040518060c0016040528060008019168152602001600073ffffffffffffffffffffffffffffffffffffffff168152602001600073ffffffffffffffffffffffffffffffffffffffff1681526020016000815260200160008152602001606081525090565b5b808211156117175760008160009055506001016116ff565b5090565b600061172e61172984611de4565b611dbf565b90508281526020810184848401111561174a57611749611fc5565b5b611755848285611e8e565b509392505050565b60008135905061176c816121a5565b92915050565b600081359050611781816121bc565b92915050565b600082601f83011261179c5761179b611fc0565b5b81356117ac84826020860161171b565b91505092915050565b6000813590506117c4816121d3565b92915050565b6000602082840312156117e0576117df611fcf565b5b60006117ee8482850161175d565b91505092915050565b6000806040838503121561180e5761180d611fcf565b5b600061181c8582860161175d565b925050602083013567ffffffffffffffff81111561183d5761183c611fca565b5b61184985828601611787565b9150509250929050565b60006020828403121561186957611868611fcf565b5b600061187784828501611772565b91505092915050565b6000806000806080858703121561189a57611899611fcf565b5b60006118a887828801611772565b94505060206118b98782880161175d565b93505060406118ca878288016117b5565b925050606085013567ffffffffffffffff8111156118eb576118ea611fca565b5b6118f787828801611787565b91505092959194509250565b60006020828403121561191957611918611fcf565b5b6000611927848285016117b5565b91505092915050565b61193981611e3c565b82525050565b61194881611e4e565b82525050565b61195781611e5a565b82525050565b600061196882611e15565b6119728185611e20565b9350611982818560208601611e9d565b61198b81611fd4565b840191505092915050565b60006119a182611e15565b6119ab8185611e31565b93506119bb818560208601611e9d565b80840191505092915050565b60006119d4600f83611e20565b91506119df82611fe5565b602082019050919050565b60006119f7601683611e20565b9150611a028261200e565b602082019050919050565b6000611a1a601683611e20565b9150611a2582612037565b602082019050919050565b6000611a3d603b83611e20565b9150611a4882612060565b604082019050919050565b6000611a60601a83611e20565b9150611a6b826120af565b602082019050919050565b6000611a83601383611e20565b9150611a8e826120d8565b602082019050919050565b6000611aa6601e83611e20565b9150611ab182612101565b602082019050919050565b6000611ac9601e83611e20565b9150611ad48261212a565b602082019050919050565b6000611aec601683611e20565b9150611af782612153565b602082019050919050565b6000611b0f601783611e20565b9150611b1a8261217c565b602082019050919050565b611b2e81611e84565b82525050565b6000611b408284611996565b915081905092915050565b6000602082019050611b606000830184611930565b92915050565b6000604082019050611b7b6000830185611930565b8181036020830152611b8d818461195d565b90509392505050565b6000602082019050611bab600083018461193f565b92915050565b600060c082019050611bc6600083018961194e565b611bd36020830188611930565b611be06040830187611930565b611bed6060830186611b25565b611bfa6080830185611b25565b81810360a0830152611c0c818461195d565b9050979650505050505050565b6000604082019050611c2e600083018561194e565b611c3b6020830184611b25565b9392505050565b60006020820190508181036000830152611c5c818461195d565b905092915050565b60006020820190508181036000830152611c7d816119c7565b9050919050565b60006020820190508181036000830152611c9d816119ea565b9050919050565b60006020820190508181036000830152611cbd81611a0d565b9050919050565b60006020820190508181036000830152611cdd81611a30565b9050919050565b60006020820190508181036000830152611cfd81611a53565b9050919050565b60006020820190508181036000830152611d1d81611a76565b9050919050565b60006020820190508181036000830152611d3d81611a99565b9050919050565b60006020820190508181036000830152611d5d81611abc565b9050919050565b60006020820190508181036000830152611d7d81611adf565b9050919050565b60006020820190508181036000830152611d9d81611b02565b9050919050565b6000602082019050611db96000830184611b25565b92915050565b6000611dc9611dda565b9050611dd58282611f02565b919050565b6000604051905090565b600067ffffffffffffffff821115611dff57611dfe611f91565b5b611e0882611fd4565b9050602081019050919050565b600081519050919050565b600082825260208201905092915050565b600081905092915050565b6000611e4782611e64565b9050919050565b60008115159050919050565b6000819050919050565b600073ffffffffffffffffffffffffffffffffffffffff82169050919050565b6000819050919050565b82818337600083830152505050565b60005b83811015611ebb578082015181840152602081019050611ea0565b83811115611eca576000848401525b50505050565b60006002820490506001821680611ee857607f821691505b60208210811415611efc57611efb611f33565b5b50919050565b611f0b82611fd4565b810181811067ffffffffffffffff82111715611f2a57611f29611f91565b5b80604052505050565b7f4e487b7100000000000000000000000000000000000000000000000000000000600052602260045260246000fd5b7f4e487b7100000000000000000000000000000000000000000000000000000000600052603260045260246000fd5b7f4e487b7100000000000000000000000000000000000000000000000000000000600052604160045260246000fd5b600080fd5b600080fd5b600080fd5b600080fd5b6000601f19601f8301169050919050565b7f496e76616c696420616464726573730000000000000000000000000000000000600082015250565b7f456d707479206e616d65206e6f7420616c6c6f77656400000000000000000000600082015250565b7f496e76616c696420636572746966696361746520696400000000000000000000600082015250565b7f4f6e6c79206120726567697374657265642074656163686572206163636f756e60008201527f742063616e206361727279206f7574207468697320616374696f6e0000000000602082015250565b7f4164647265737320616c72656164792072656769737465726564000000000000600082015250565b7f496e76616c696420636f75727365206e616d6500000000000000000000000000600082015250565b7f436572746966696361746520494420616c72656164792070726573656e740000600082015250565b7f53747564656e74206163636f756e74206e6f7420726567697374657265640000600082015250565b7f596f7520617265206e6f7420746865206f776e65722e00000000000000000000600082015250565b7f4d61726b73206d757374206265206d61782e2031303030000000000000000000600082015250565b6121ae81611e3c565b81146121b957600080fd5b50565b6121c581611e5a565b81146121d057600080fd5b50565b6121dc81611e84565b81146121e757600080fd5b5056fea26469706673582212205722b7c13edeb38e2d13ec718aa34224cd3cb8adede53a9d8069f5542b1d591164736f6c63430008070033",
  "immutableReferences": {},
  "source": "// SPDX-License-Identifier: MIT\r\npragma solidity ^0.8.0;\r\n\r\nimport \"./Students.sol\";\r\nimport \"@openzeppelin/contracts/utils/structs/EnumerableSet.sol\";\r\n\r\ncontract CertiContract is StudentsContract {\r\n\r\n  using EnumerableSet for EnumerableSet.Bytes32Set;\r\n\r\n  struct CertificateInfo {\r\n    bytes32 certificateId;\r\n    address studentAddr;\r\n    address certProviderAddr;\r\n    uint marks;\r\n    uint timestamp;\r\n    string courseName;\r\n  }\r\n\r\n  EnumerableSet.Bytes32Set certificates;\r\n  mapping (bytes32 => CertificateInfo) public certificateInfo;\r\n\r\n  event Certify (\r\n    address indexed studAddr,\r\n    address indexed providerAddr,\r\n    bytes32 certId,\r\n    uint timestamp,\r\n    string indexed courseName\r\n  );\r\n\r\n  function certifyStudent(bytes32 _id, address _stud, uint _marks, string memory _course) public onlyTeacher {\r\n    require(uint(_id) != 0, \"Invalid certificate id\");\r\n    require(StudentsContract.checkStudentRegistered(_stud), \"Student account not registered\");\r\n    require(_marks <= 1000, \"Marks must be max. 1000\");\r\n    require(bytes(_course).length > 0, \"Invalid course name\");\r\n\r\n    require(certificates.add(_id) == true, \"Certificate ID already present\");\r\n    CertificateInfo memory _certificate;\r\n    _certificate.certificateId = _id;\r\n    _certificate.studentAddr = _stud;\r\n    _certificate.certProviderAddr = msg.sender;\r\n    _certificate.marks = _marks;\r\n    _certificate.timestamp = block.timestamp;\r\n    _certificate.courseName = _course;\r\n    certificateInfo[_id] = _certificate;\r\n\r\n    emit Certify(_stud, msg.sender, _id, block.timestamp, _course);\r\n  }\r\n\r\n  function getCertificateCount() public view returns(uint) {\r\n    return certificates.length();\r\n  }\r\n\r\n  function getCertificateInfoByIndex(uint _index) public view\r\n  returns(\r\n    bytes32 certificateId,\r\n    address studentAddr,\r\n    address certProviderAddr,\r\n    uint marks,\r\n    uint timestamp,\r\n    string memory courseName\r\n  )\r\n  {\r\n    if (_index < getCertificateCount()) {\r\n      CertificateInfo storage cert = certificateInfo[certificates.at(_index)];\r\n      return (\r\n        cert.certificateId,\r\n        cert.studentAddr,\r\n        cert.certProviderAddr,\r\n        cert.marks,\r\n        cert.timestamp,\r\n        cert.courseName\r\n      );\r\n    }\r\n    else {\r\n      return (bytes32(0), address(0), address(0), 0, 0, \"\");\r\n    }\r\n  }\r\n\r\n  function checkCertificateProvided(bytes32 _id) public view returns (bool) {\r\n    return certificates.contains(_id);\r\n  }\r\n}\r\n",
  "sourcePath": "C:\\Users\\Dharmveer\\Documents\\Projects\\CertiBlocks\\contracts\\CertiContract.sol",
  "compiler": {
    "name": "solc",
    "version": "0.8.7+commit.e28d00a7.Emscripten.clang"
  },
  "schemaVersion": "3.4.3",
  "updatedAt": "2021-12-30T17:26:28.637Z",
  "networkType": "ethereum",
  "devdoc": {
    "kind": "dev",
    "methods": {},
    "version": 1
  },
  "userdoc": {
    "kind": "user",
    "methods": {},
    "version": 1
  }
}