{
  "contractName": "CertiContract",
  "abi": [
    {
      "anonymous": false,
      "inputs": [
        {
          "indexed": true,
          "internalType": "address",
          "name": "addr",
          "type": "address"
        },
        {
          "indexed": false,
          "internalType": "uint256",
          "name": "timestamp",
          "type": "uint256"
        }
      ],
      "name": "AuthorityRegistered",
      "type": "event"
    },
    {
      "anonymous": false,
      "inputs": [
        {
          "indexed": true,
          "internalType": "address",
          "name": "studAddr",
          "type": "address"
        },
        {
          "indexed": true,
          "internalType": "address",
          "name": "providerAddr",
          "type": "address"
        },
        {
          "indexed": false,
          "internalType": "bytes32",
          "name": "certId",
          "type": "bytes32"
        },
        {
          "indexed": false,
          "internalType": "uint256",
          "name": "timestamp",
          "type": "uint256"
        },
        {
          "indexed": false,
          "internalType": "string",
          "name": "courseName",
          "type": "string"
        }
      ],
      "name": "CertificateGenerated",
      "type": "event"
    },
    {
      "inputs": [
        {
          "internalType": "bytes32",
          "name": "",
          "type": "bytes32"
        }
      ],
      "name": "certificateInfo",
      "outputs": [
        {
          "internalType": "bytes32",
          "name": "certificateId",
          "type": "bytes32"
        },
        {
          "internalType": "address",
          "name": "studentAddr",
          "type": "address"
        },
        {
          "internalType": "address",
          "name": "certProviderAddr",
          "type": "address"
        },
        {
          "internalType": "uint256",
          "name": "marks",
          "type": "uint256"
        },
        {
          "internalType": "uint256",
          "name": "totalMarks",
          "type": "uint256"
        },
        {
          "internalType": "uint256",
          "name": "timestamp",
          "type": "uint256"
        },
        {
          "internalType": "string",
          "name": "courseName",
          "type": "string"
        },
        {
          "internalType": "string",
          "name": "studentName",
          "type": "string"
        }
      ],
      "stateMutability": "view",
      "type": "function",
      "constant": true
    },
    {
      "inputs": [
        {
          "internalType": "address",
          "name": "_addr",
          "type": "address"
        }
      ],
      "name": "checkIfRegistered",
      "outputs": [
        {
          "internalType": "bool",
          "name": "",
          "type": "bool"
        }
      ],
      "stateMutability": "view",
      "type": "function",
      "constant": true
    },
    {
      "inputs": [
        {
          "internalType": "uint256",
          "name": "_index",
          "type": "uint256"
        }
      ],
      "name": "getAuthorityByIndex",
      "outputs": [
        {
          "internalType": "address",
          "name": "addr",
          "type": "address"
        }
      ],
      "stateMutability": "view",
      "type": "function",
      "constant": true
    },
    {
      "inputs": [],
      "name": "getAuthorityCount",
      "outputs": [
        {
          "internalType": "uint256",
          "name": "",
          "type": "uint256"
        }
      ],
      "stateMutability": "view",
      "type": "function",
      "constant": true
    },
    {
      "inputs": [],
      "name": "owner",
      "outputs": [
        {
          "internalType": "address",
          "name": "",
          "type": "address"
        }
      ],
      "stateMutability": "view",
      "type": "function",
      "constant": true
    },
    {
      "inputs": [
        {
          "internalType": "address",
          "name": "_addr",
          "type": "address"
        }
      ],
      "name": "registerNewAuthority",
      "outputs": [],
      "stateMutability": "nonpayable",
      "type": "function"
    },
    {
      "inputs": [
        {
          "internalType": "bytes32",
          "name": "_id",
          "type": "bytes32"
        },
        {
          "internalType": "address",
          "name": "_studAddr",
          "type": "address"
        },
        {
          "internalType": "uint256",
          "name": "_marks",
          "type": "uint256"
        },
        {
          "internalType": "uint256",
          "name": "_totalMarks",
          "type": "uint256"
        },
        {
          "internalType": "string",
          "name": "_course",
          "type": "string"
        },
        {
          "internalType": "string",
          "name": "_studName",
          "type": "string"
        }
      ],
      "name": "certify",
      "outputs": [],
      "stateMutability": "nonpayable",
      "type": "function"
    },
    {
      "inputs": [],
      "name": "getCertificateCount",
      "outputs": [
        {
          "internalType": "uint256",
          "name": "",
          "type": "uint256"
        }
      ],
      "stateMutability": "view",
      "type": "function",
      "constant": true
    },
    {
      "inputs": [
        {
          "internalType": "uint256",
          "name": "_index",
          "type": "uint256"
        }
      ],
      "name": "getCertificateInfoByIndex",
      "outputs": [
        {
          "internalType": "bytes32",
          "name": "certificateId",
          "type": "bytes32"
        },
        {
          "internalType": "address",
          "name": "studentAddr",
          "type": "address"
        },
        {
          "internalType": "address",
          "name": "certProviderAddr",
          "type": "address"
        },
        {
          "internalType": "uint256",
          "name": "marks",
          "type": "uint256"
        },
        {
          "internalType": "uint256",
          "name": "totalMarks",
          "type": "uint256"
        },
        {
          "internalType": "uint256",
          "name": "timestamp",
          "type": "uint256"
        },
        {
          "internalType": "string",
          "name": "courseName",
          "type": "string"
        },
        {
          "internalType": "string",
          "name": "studentName",
          "type": "string"
        }
      ],
      "stateMutability": "view",
      "type": "function",
      "constant": true
    },
    {
      "inputs": [
        {
          "internalType": "bytes32",
          "name": "_id",
          "type": "bytes32"
        }
      ],
      "name": "checkCertificateProvided",
      "outputs": [
        {
          "internalType": "bool",
          "name": "",
          "type": "bool"
        }
      ],
      "stateMutability": "view",
      "type": "function",
      "constant": true
    }
  ],
  "bytecode": "0x60806040523480156200001157600080fd5b50336000806101000a81548173ffffffffffffffffffffffffffffffffffffffff021916908373ffffffffffffffffffffffffffffffffffffffff1602179055506200008360008054906101000a900473ffffffffffffffffffffffffffffffffffffffff166200008960201b60201c565b620004b8565b60008054906101000a900473ffffffffffffffffffffffffffffffffffffffff1673ffffffffffffffffffffffffffffffffffffffff163373ffffffffffffffffffffffffffffffffffffffff16146200011a576040517f08c379a00000000000000000000000000000000000000000000000000000000081526004016200011190620003e3565b60405180910390fd5b600073ffffffffffffffffffffffffffffffffffffffff168173ffffffffffffffffffffffffffffffffffffffff1614156200018d576040517f08c379a000000000000000000000000000000000000000000000000000000000815260040162000184906200039f565b60405180910390fd5b60011515620001ac8260016200024460201b62000cf71790919060201c565b151514620001f1576040517f08c379a0000000000000000000000000000000000000000000000000000000008152600401620001e890620003c1565b60405180910390fd5b8073ffffffffffffffffffffffffffffffffffffffff167f54402fda05a7beef8f85b30a0f582da5a75bbad1ca4f4e14f3510a7a177c432d4260405162000239919062000405565b60405180910390a250565b600062000274836000018373ffffffffffffffffffffffffffffffffffffffff1660001b6200027c60201b60201c565b905092915050565b6000620002908383620002f660201b60201c565b620002eb578260000182908060018154018082558091505060019003906000526020600020016000909190919091505582600001805490508360010160008481526020019081526020016000208190555060019050620002f0565b600090505b92915050565b600080836001016000848152602001908152602001600020541415905092915050565b600062000328600f8362000422565b915062000335826200043d565b602082019050919050565b60006200034f601a8362000422565b91506200035c8262000466565b602082019050919050565b60006200037660168362000422565b915062000383826200048f565b602082019050919050565b620003998162000433565b82525050565b60006020820190508181036000830152620003ba8162000319565b9050919050565b60006020820190508181036000830152620003dc8162000340565b9050919050565b60006020820190508181036000830152620003fe8162000367565b9050919050565b60006020820190506200041c60008301846200038e565b92915050565b600082825260208201905092915050565b6000819050919050565b7f496e76616c696420616464726573730000000000000000000000000000000000600082015250565b7f4164647265737320616c72656164792072656769737465726564000000000000600082015250565b7f596f7520617265206e6f7420746865206f776e65722e00000000000000000000600082015250565b611ad780620004c86000396000f3fe608060405234801561001057600080fd5b506004361061009e5760003560e01c80634b122c8f116100665780634b122c8f146101725780638809f727146101a95780638da5cb5b146101c7578063a40dd1bc146101e5578063af64e735146102035761009e565b80631a8c60b5146100a35780632c7f149c146100da5780634317577a1461010a57806349363909146101265780634973a55f14610156575b600080fd5b6100bd60048036038101906100b89190611194565b610233565b6040516100d19897969594939291906113ed565b60405180910390f35b6100f460048036038101906100ef91906110a2565b610454565b60405161010191906113d2565b60405180910390f35b610124600480360381019061011f9190611075565b610471565b005b610140600480360381019061013b9190611194565b61061a565b60405161014d91906113b7565b60405180910390f35b610170600480360381019061016b91906110cf565b610637565b005b61018c600480360381019061018791906110a2565b610afc565b6040516101a09897969594939291906113ed565b60405180910390f35b6101b1610c94565b6040516101be9190611617565b60405180910390f35b6101cf610ca5565b6040516101dc91906113b7565b60405180910390f35b6101ed610cc9565b6040516101fa9190611617565b60405180910390f35b61021d60048036038101906102189190611075565b610cda565b60405161022a91906113d2565b60405180910390f35b600080600080600080606080610247610c94565b89101561040c576000600560006102688c6003610d2790919063ffffffff16565b8152602001908152602001600020905080600001548160010160009054906101000a900473ffffffffffffffffffffffffffffffffffffffff168260020160009054906101000a900473ffffffffffffffffffffffffffffffffffffffff1683600301548460040154856005015486600601876007018180546102ea90611738565b80601f016020809104026020016040519081016040528092919081815260200182805461031690611738565b80156103635780601f1061033857610100808354040283529160200191610363565b820191906000526020600020905b81548152906001019060200180831161034657829003601f168201915b5050505050915080805461037690611738565b80601f01602080910402602001604051908101604052809291908181526020018280546103a290611738565b80156103ef5780601f106103c4576101008083540402835291602001916103ef565b820191906000526020600020905b8154815290600101906020018083116103d257829003601f168201915b505050505090509850985098509850985098509850985050610449565b6000801b60008060008060006040518060200160405280600081525060405180602001604052806000815250975097509750975097509750975097505b919395975091939597565b600061046a826003610d3e90919063ffffffff16565b9050919050565b60008054906101000a900473ffffffffffffffffffffffffffffffffffffffff1673ffffffffffffffffffffffffffffffffffffffff163373ffffffffffffffffffffffffffffffffffffffff16146104ff576040517f08c379a00000000000000000000000000000000000000000000000000000000081526004016104f6906115f7565b60405180910390fd5b600073ffffffffffffffffffffffffffffffffffffffff168173ffffffffffffffffffffffffffffffffffffffff16141561056f576040517f08c379a0000000000000000000000000000000000000000000000000000000008152600401610566906114b7565b60405180910390fd5b60011515610587826001610cf790919063ffffffff16565b1515146105c9576040517f08c379a00000000000000000000000000000000000000000000000000000000081526004016105c090611557565b60405180910390fd5b8073ffffffffffffffffffffffffffffffffffffffff167f54402fda05a7beef8f85b30a0f582da5a75bbad1ca4f4e14f3510a7a177c432d4260405161060f9190611617565b60405180910390a250565b6000610630826001610d5590919063ffffffff16565b9050919050565b6001151561064433610cda565b151514610686576040517f08c379a000000000000000000000000000000000000000000000000000000000815260040161067d90611577565b60405180910390fd5b60008660001c14156106cd576040517f08c379a00000000000000000000000000000000000000000000000000000000081526004016106c4906114d7565b60405180910390fd5b600073ffffffffffffffffffffffffffffffffffffffff168573ffffffffffffffffffffffffffffffffffffffff16141561073d576040517f08c379a000000000000000000000000000000000000000000000000000000000815260040161073490611517565b60405180910390fd5b3373ffffffffffffffffffffffffffffffffffffffff168573ffffffffffffffffffffffffffffffffffffffff1614156107ac576040517f08c379a00000000000000000000000000000000000000000000000000000000081526004016107a3906114f7565b60405180910390fd5b60008251116107f0576040517f08c379a00000000000000000000000000000000000000000000000000000000081526004016107e790611597565b60405180910390fd5b6000815111610834576040517f08c379a000000000000000000000000000000000000000000000000000000000815260040161082b906115b7565b60405180910390fd5b82841115610877576040517f08c379a000000000000000000000000000000000000000000000000000000000815260040161086e90611537565b60405180910390fd5b6001151561088f876003610d6f90919063ffffffff16565b1515146108d1576040517f08c379a00000000000000000000000000000000000000000000000000000000081526004016108c8906115d7565b60405180910390fd5b6108d9610eaf565b8681600001818152505085816020019073ffffffffffffffffffffffffffffffffffffffff16908173ffffffffffffffffffffffffffffffffffffffff168152505033816040019073ffffffffffffffffffffffffffffffffffffffff16908173ffffffffffffffffffffffffffffffffffffffff16815250508481606001818152505083816080018181525050428160a0018181525050828160c00181905250818160e0018190525080600560008981526020019081526020016000206000820151816000015560208201518160010160006101000a81548173ffffffffffffffffffffffffffffffffffffffff021916908373ffffffffffffffffffffffffffffffffffffffff16021790555060408201518160020160006101000a81548173ffffffffffffffffffffffffffffffffffffffff021916908373ffffffffffffffffffffffffffffffffffffffff160217905550606082015181600301556080820151816004015560a0820151816005015560c0820151816006019080519060200190610a69929190610f23565b5060e0820151816007019080519060200190610a86929190610f23565b509050503373ffffffffffffffffffffffffffffffffffffffff168673ffffffffffffffffffffffffffffffffffffffff167fa96629d3643007c035d6d56f8e12385e6a1e365b9c5db836f895b37fdb4c52e5894287604051610aeb93929190611479565b60405180910390a350505050505050565b60056020528060005260406000206000915090508060000154908060010160009054906101000a900473ffffffffffffffffffffffffffffffffffffffff16908060020160009054906101000a900473ffffffffffffffffffffffffffffffffffffffff1690806003015490806004015490806005015490806006018054610b8390611738565b80601f0160208091040260200160405190810160405280929190818152602001828054610baf90611738565b8015610bfc5780601f10610bd157610100808354040283529160200191610bfc565b820191906000526020600020905b815481529060010190602001808311610bdf57829003601f168201915b505050505090806007018054610c1190611738565b80601f0160208091040260200160405190810160405280929190818152602001828054610c3d90611738565b8015610c8a5780601f10610c5f57610100808354040283529160200191610c8a565b820191906000526020600020905b815481529060010190602001808311610c6d57829003601f168201915b5050505050905088565b6000610ca06003610d86565b905090565b60008054906101000a900473ffffffffffffffffffffffffffffffffffffffff1681565b6000610cd56001610d9b565b905090565b6000610cf0826001610db090919063ffffffff16565b9050919050565b6000610d1f836000018373ffffffffffffffffffffffffffffffffffffffff1660001b610de0565b905092915050565b6000610d368360000183610e50565b905092915050565b6000610d4d8360000183610e7b565b905092915050565b6000610d648360000183610e50565b60001c905092915050565b6000610d7e8360000183610de0565b905092915050565b6000610d9482600001610e9e565b9050919050565b6000610da982600001610e9e565b9050919050565b6000610dd8836000018373ffffffffffffffffffffffffffffffffffffffff1660001b610e7b565b905092915050565b6000610dec8383610e7b565b610e45578260000182908060018154018082558091505060019003906000526020600020016000909190919091505582600001805490508360010160008481526020019081526020016000208190555060019050610e4a565b600090505b92915050565b6000826000018281548110610e6857610e676117ca565b5b9060005260206000200154905092915050565b600080836001016000848152602001908152602001600020541415905092915050565b600081600001805490509050919050565b60405180610100016040528060008019168152602001600073ffffffffffffffffffffffffffffffffffffffff168152602001600073ffffffffffffffffffffffffffffffffffffffff16815260200160008152602001600081526020016000815260200160608152602001606081525090565b828054610f2f90611738565b90600052602060002090601f016020900481019282610f515760008555610f98565b82601f10610f6a57805160ff1916838001178555610f98565b82800160010185558215610f98579182015b82811115610f97578251825591602001919060010190610f7c565b5b509050610fa59190610fa9565b5090565b5b80821115610fc2576000816000905550600101610faa565b5090565b6000610fd9610fd484611657565b611632565b905082815260208101848484011115610ff557610ff461182d565b5b6110008482856116f6565b509392505050565b60008135905061101781611a5c565b92915050565b60008135905061102c81611a73565b92915050565b600082601f83011261104757611046611828565b5b8135611057848260208601610fc6565b91505092915050565b60008135905061106f81611a8a565b92915050565b60006020828403121561108b5761108a611837565b5b600061109984828501611008565b91505092915050565b6000602082840312156110b8576110b7611837565b5b60006110c68482850161101d565b91505092915050565b60008060008060008060c087890312156110ec576110eb611837565b5b60006110fa89828a0161101d565b965050602061110b89828a01611008565b955050604061111c89828a01611060565b945050606061112d89828a01611060565b935050608087013567ffffffffffffffff81111561114e5761114d611832565b5b61115a89828a01611032565b92505060a087013567ffffffffffffffff81111561117b5761117a611832565b5b61118789828a01611032565b9150509295509295509295565b6000602082840312156111aa576111a9611837565b5b60006111b884828501611060565b91505092915050565b6111ca816116a4565b82525050565b6111d9816116b6565b82525050565b6111e8816116c2565b82525050565b60006111f982611688565b6112038185611693565b9350611213818560208601611705565b61121c8161183c565b840191505092915050565b6000611234600f83611693565b915061123f8261184d565b602082019050919050565b6000611257601683611693565b915061126282611876565b602082019050919050565b600061127a601a83611693565b91506112858261189f565b602082019050919050565b600061129d601783611693565b91506112a8826118c8565b602082019050919050565b60006112c0602d83611693565b91506112cb826118f1565b604082019050919050565b60006112e3601a83611693565b91506112ee82611940565b602082019050919050565b6000611306603583611693565b915061131182611969565b604082019050919050565b6000611329601283611693565b9150611334826119b8565b602082019050919050565b600061134c601383611693565b9150611357826119e1565b602082019050919050565b600061136f601e83611693565b915061137a82611a0a565b602082019050919050565b6000611392601683611693565b915061139d82611a33565b602082019050919050565b6113b1816116ec565b82525050565b60006020820190506113cc60008301846111c1565b92915050565b60006020820190506113e760008301846111d0565b92915050565b600061010082019050611403600083018b6111df565b611410602083018a6111c1565b61141d60408301896111c1565b61142a60608301886113a8565b61143760808301876113a8565b61144460a08301866113a8565b81810360c083015261145681856111ee565b905081810360e083015261146a81846111ee565b90509998505050505050505050565b600060608201905061148e60008301866111df565b61149b60208301856113a8565b81810360408301526114ad81846111ee565b9050949350505050565b600060208201905081810360008301526114d081611227565b9050919050565b600060208201905081810360008301526114f08161124a565b9050919050565b600060208201905081810360008301526115108161126d565b9050919050565b6000602082019050818103600083015261153081611290565b9050919050565b60006020820190508181036000830152611550816112b3565b9050919050565b60006020820190508181036000830152611570816112d6565b9050919050565b60006020820190508181036000830152611590816112f9565b9050919050565b600060208201905081810360008301526115b08161131c565b9050919050565b600060208201905081810360008301526115d08161133f565b9050919050565b600060208201905081810360008301526115f081611362565b9050919050565b6000602082019050818103600083015261161081611385565b9050919050565b600060208201905061162c60008301846113a8565b92915050565b600061163c61164d565b9050611648828261176a565b919050565b6000604051905090565b600067ffffffffffffffff821115611672576116716117f9565b5b61167b8261183c565b9050602081019050919050565b600081519050919050565b600082825260208201905092915050565b60006116af826116cc565b9050919050565b60008115159050919050565b6000819050919050565b600073ffffffffffffffffffffffffffffffffffffffff82169050919050565b6000819050919050565b82818337600083830152505050565b60005b83811015611723578082015181840152602081019050611708565b83811115611732576000848401525b50505050565b6000600282049050600182168061175057607f821691505b602082108114156117645761176361179b565b5b50919050565b6117738261183c565b810181811067ffffffffffffffff82111715611792576117916117f9565b5b80604052505050565b7f4e487b7100000000000000000000000000000000000000000000000000000000600052602260045260246000fd5b7f4e487b7100000000000000000000000000000000000000000000000000000000600052603260045260246000fd5b7f4e487b7100000000000000000000000000000000000000000000000000000000600052604160045260246000fd5b600080fd5b600080fd5b600080fd5b600080fd5b6000601f19601f8301169050919050565b7f496e76616c696420616464726573730000000000000000000000000000000000600082015250565b7f496e76616c696420636572746966696361746520696400000000000000000000600082015250565b7f596f752063616e2774206365727469667920796f757273656c66000000000000600082015250565b7f496e76616c69642073747564656e742061646472657373000000000000000000600082015250565b7f4f627461696e6564206d61726b732063616e2774206265206d6f72652074686160008201527f6e20746f74616c206d61726b7300000000000000000000000000000000000000602082015250565b7f4164647265737320616c72656164792072656769737465726564000000000000600082015250565b7f4f6e6c792061207265676973746572656420617574686f726974792063616e2060008201527f6361727279206f7574207468697320616374696f6e0000000000000000000000602082015250565b7f456d70747920636f75727365206e616d65210000000000000000000000000000600082015250565b7f456d7074792073747564656e74206e616d652100000000000000000000000000600082015250565b7f436572746966696361746520494420616c72656164792070726573656e740000600082015250565b7f596f7520617265206e6f7420746865206f776e65722e00000000000000000000600082015250565b611a65816116a4565b8114611a7057600080fd5b50565b611a7c816116c2565b8114611a8757600080fd5b50565b611a93816116ec565b8114611a9e57600080fd5b5056fea2646970667358221220fe7fd5d7172f377b99754da2496959457be9c571ef109d4c246c3217f4a70fba64736f6c63430008070033",
  "immutableReferences": {},
  "source": "// SPDX-License-Identifier: MIT\r\npragma solidity ^0.8.0;\r\n\r\nimport \"./Authorities.sol\";\r\nimport \"@openzeppelin/contracts/utils/structs/EnumerableSet.sol\";\r\n\r\ncontract CertiContract is AuthoritiesContract {\r\n\r\n  using EnumerableSet for EnumerableSet.Bytes32Set;\r\n\r\n  struct CertificateInfo {\r\n    bytes32 certificateId;\r\n    address studentAddr;\r\n    address certProviderAddr;\r\n    uint marks;\r\n    uint totalMarks;\r\n    uint timestamp;\r\n    string courseName;\r\n    string studentName;\r\n  }\r\n\r\n  EnumerableSet.Bytes32Set certificates;\r\n  mapping (bytes32 => CertificateInfo) public certificateInfo;\r\n\r\n  event CertificateGenerated (\r\n    address indexed studAddr,\r\n    address indexed providerAddr,\r\n    bytes32 certId,\r\n    uint timestamp,\r\n    string courseName\r\n  );\r\n\r\n  function certify(\r\n    bytes32 _id,\r\n    address _studAddr,\r\n    uint _marks,\r\n    uint _totalMarks,\r\n    string memory _course,\r\n    string memory _studName\r\n  ) public onlyAuthority {\r\n    require(uint(_id) != 0, \"Invalid certificate id\");\r\n    require(_studAddr != address(0), \"Invalid student address\");\r\n    require(_studAddr != msg.sender, \"You can't certify yourself\");\r\n    require(bytes(_course).length > 0, \"Empty course name!\");\r\n    require(bytes(_studName).length > 0, \"Empty student name!\");\r\n    require(_marks <= _totalMarks, \"Obtained marks can't be more than total marks\");\r\n\r\n    require(certificates.add(_id) == true, \"Certificate ID already present\");\r\n    CertificateInfo memory _certificate;\r\n    _certificate.certificateId = _id;\r\n    _certificate.studentAddr = _studAddr;\r\n    _certificate.certProviderAddr = msg.sender;\r\n    _certificate.marks = _marks;\r\n    _certificate.totalMarks = _totalMarks;\r\n    _certificate.timestamp = block.timestamp;\r\n    _certificate.courseName = _course;\r\n    _certificate.studentName = _studName;\r\n    certificateInfo[_id] = _certificate;\r\n\r\n    emit CertificateGenerated(_studAddr, msg.sender, _id, block.timestamp, _course);\r\n  }\r\n\r\n  function getCertificateCount() public view returns(uint) {\r\n    return certificates.length();\r\n  }\r\n\r\n  function getCertificateInfoByIndex(uint _index) public view\r\n  returns(\r\n    bytes32 certificateId,\r\n    address studentAddr,\r\n    address certProviderAddr,\r\n    uint marks,\r\n    uint totalMarks,\r\n    uint timestamp,\r\n    string memory courseName,\r\n    string memory studentName\r\n  )\r\n  {\r\n    if (_index < getCertificateCount()) {\r\n      CertificateInfo storage cert = certificateInfo[certificates.at(_index)];\r\n      return (\r\n        cert.certificateId,\r\n        cert.studentAddr,\r\n        cert.certProviderAddr,\r\n        cert.marks,\r\n        cert.totalMarks,\r\n        cert.timestamp,\r\n        cert.courseName,\r\n        cert.studentName\r\n      );\r\n    }\r\n    else {\r\n      return (bytes32(0), address(0), address(0), 0, 0, 0, \"\", \"\");\r\n    }\r\n  }\r\n\r\n  function checkCertificateProvided(bytes32 _id) public view returns (bool) {\r\n    return certificates.contains(_id);\r\n  }\r\n}\r\n",
  "sourcePath": "C:/Users/HP/Documents/Projects/CertiBlocks/contracts/CertiContract.sol",
  "compiler": {
    "name": "solc",
    "version": "0.8.7+commit.e28d00a7.Emscripten.clang"
  },
  "schemaVersion": "3.4.1",
  "updatedAt": "2022-10-27T06:10:48.870Z",
  "networkType": "ethereum",
  "devdoc": {
    "kind": "dev",
    "methods": {},
    "version": 1
  },
  "userdoc": {
    "kind": "user",
    "methods": {},
    "version": 1
  }
}