{
  "contractName": "StudentsContract",
  "abi": [
    {
      "anonymous": false,
      "inputs": [
        {
          "indexed": true,
          "internalType": "address",
          "name": "addr",
          "type": "address"
        },
        {
          "indexed": true,
          "internalType": "address",
          "name": "byAddr",
          "type": "address"
        },
        {
          "indexed": false,
          "internalType": "string",
          "name": "name",
          "type": "string"
        }
      ],
      "name": "StudentRegistered",
      "type": "event"
    },
    {
      "anonymous": false,
      "inputs": [
        {
          "indexed": true,
          "internalType": "address",
          "name": "addr",
          "type": "address"
        },
        {
          "indexed": false,
          "internalType": "string",
          "name": "name",
          "type": "string"
        }
      ],
      "name": "TeacherRegistered",
      "type": "event"
    },
    {
      "inputs": [
        {
          "internalType": "address",
          "name": "_addr",
          "type": "address"
        }
      ],
      "name": "checkTeacherRegistered",
      "outputs": [
        {
          "internalType": "bool",
          "name": "",
          "type": "bool"
        }
      ],
      "stateMutability": "view",
      "type": "function"
    },
    {
      "inputs": [],
      "name": "getTeacherCount",
      "outputs": [
        {
          "internalType": "uint256",
          "name": "",
          "type": "uint256"
        }
      ],
      "stateMutability": "view",
      "type": "function"
    },
    {
      "inputs": [
        {
          "internalType": "address",
          "name": "_addr",
          "type": "address"
        }
      ],
      "name": "getTeacherInfoByAddress",
      "outputs": [
        {
          "internalType": "address",
          "name": "addr",
          "type": "address"
        },
        {
          "internalType": "string",
          "name": "name",
          "type": "string"
        }
      ],
      "stateMutability": "view",
      "type": "function"
    },
    {
      "inputs": [
        {
          "internalType": "uint256",
          "name": "_index",
          "type": "uint256"
        }
      ],
      "name": "getTeacherInfoByIndex",
      "outputs": [
        {
          "internalType": "address",
          "name": "addr",
          "type": "address"
        },
        {
          "internalType": "string",
          "name": "name",
          "type": "string"
        }
      ],
      "stateMutability": "view",
      "type": "function"
    },
    {
      "inputs": [],
      "name": "owner",
      "outputs": [
        {
          "internalType": "address",
          "name": "",
          "type": "address"
        }
      ],
      "stateMutability": "view",
      "type": "function"
    },
    {
      "inputs": [
        {
          "internalType": "address",
          "name": "_addr",
          "type": "address"
        },
        {
          "internalType": "string",
          "name": "_name",
          "type": "string"
        }
      ],
      "name": "registerNewTeacher",
      "outputs": [],
      "stateMutability": "nonpayable",
      "type": "function"
    },
    {
      "inputs": [
        {
          "internalType": "address",
          "name": "_addr",
          "type": "address"
        },
        {
          "internalType": "string",
          "name": "_name",
          "type": "string"
        }
      ],
      "name": "registerNewStudent",
      "outputs": [],
      "stateMutability": "nonpayable",
      "type": "function"
    },
    {
      "inputs": [],
      "name": "getStudentCount",
      "outputs": [
        {
          "internalType": "uint256",
          "name": "",
          "type": "uint256"
        }
      ],
      "stateMutability": "view",
      "type": "function"
    },
    {
      "inputs": [
        {
          "internalType": "uint256",
          "name": "_index",
          "type": "uint256"
        }
      ],
      "name": "getStudentInfoByIndex",
      "outputs": [
        {
          "internalType": "address",
          "name": "addr",
          "type": "address"
        },
        {
          "internalType": "string",
          "name": "name",
          "type": "string"
        }
      ],
      "stateMutability": "view",
      "type": "function"
    },
    {
      "inputs": [
        {
          "internalType": "address",
          "name": "_addr",
          "type": "address"
        }
      ],
      "name": "getStudentsInfoByAddress",
      "outputs": [
        {
          "internalType": "address",
          "name": "addr",
          "type": "address"
        },
        {
          "internalType": "string",
          "name": "name",
          "type": "string"
        }
      ],
      "stateMutability": "view",
      "type": "function"
    },
    {
      "inputs": [
        {
          "internalType": "address",
          "name": "_addr",
          "type": "address"
        }
      ],
      "name": "checkStudentRegistered",
      "outputs": [
        {
          "internalType": "bool",
          "name": "",
          "type": "bool"
        }
      ],
      "stateMutability": "view",
      "type": "function"
    }
  ],
  "bytecode": "0x608060405234801561001057600080fd5b50336000806101000a81548173ffffffffffffffffffffffffffffffffffffffff021916908373ffffffffffffffffffffffffffffffffffffffff1602179055506115e4806100606000396000f3fe608060405234801561001057600080fd5b50600436106100a95760003560e01c806388b45a6c1161007157806388b45a6c146101645780638d1428b7146101955780638da5cb5b146101c6578063b6f69880146101e4578063f92d05c914610202578063fd59f7ef14610233576100a9565b806304f00360146100ae5780630b009f6d146100de57806341e0c407146100fa578063423bbd4a146101185780638107b01014610148575b600080fd5b6100c860048036038101906100c39190610f6e565b610264565b6040516100d59190611184565b60405180910390f35b6100f860048036038101906100f39190610f9b565b610281565b005b610102610546565b60405161010f9190611261565b60405180910390f35b610132600480360381019061012d9190610f6e565b610557565b60405161013f9190611184565b60405180910390f35b610162600480360381019061015d9190610f9b565b610574565b005b61017e60048036038101906101799190610ff7565b61080a565b60405161018c929190611154565b60405180910390f35b6101af60048036038101906101aa9190610f6e565b61094e565b6040516101bd929190611154565b60405180910390f35b6101ce610a54565b6040516101db9190611139565b60405180910390f35b6101ec610a78565b6040516101f99190611261565b60405180910390f35b61021c60048036038101906102179190610ff7565b610a89565b60405161022a929190611154565b60405180910390f35b61024d60048036038101906102489190610f6e565b610bcd565b60405161025b929190611154565b60405180910390f35b600061027a826004610cd390919063ffffffff16565b9050919050565b60008054906101000a900473ffffffffffffffffffffffffffffffffffffffff1673ffffffffffffffffffffffffffffffffffffffff163373ffffffffffffffffffffffffffffffffffffffff161461030f576040517f08c379a000000000000000000000000000000000000000000000000000000000815260040161030690611241565b60405180910390fd5b600073ffffffffffffffffffffffffffffffffffffffff168273ffffffffffffffffffffffffffffffffffffffff16141561037f576040517f08c379a0000000000000000000000000000000000000000000000000000000008152600401610376906111c1565b60405180910390fd5b60008151116103c3576040517f08c379a00000000000000000000000000000000000000000000000000000000081526004016103ba906111e1565b60405180910390fd5b600115156103db836001610d0390919063ffffffff16565b15151461041d576040517f08c379a000000000000000000000000000000000000000000000000000000000815260040161041490611221565b60405180910390fd5b600060405180604001604052808473ffffffffffffffffffffffffffffffffffffffff16815260200183815250905080600360008573ffffffffffffffffffffffffffffffffffffffff1673ffffffffffffffffffffffffffffffffffffffff16815260200190815260200160002060008201518160000160006101000a81548173ffffffffffffffffffffffffffffffffffffffff021916908373ffffffffffffffffffffffffffffffffffffffff16021790555060208201518160010190805190602001906104ef929190610e31565b509050508273ffffffffffffffffffffffffffffffffffffffff167f19ebf0e30a8e689d058b16b6b5a058ee1288ae105d904219087073039e0c4ac083604051610539919061119f565b60405180910390a2505050565b60006105526004610d33565b905090565b600061056d826001610cd390919063ffffffff16565b9050919050565b61057d33610557565b6105bc576040517f08c379a00000000000000000000000000000000000000000000000000000000081526004016105b390611201565b60405180910390fd5b600073ffffffffffffffffffffffffffffffffffffffff168273ffffffffffffffffffffffffffffffffffffffff16141561062c576040517f08c379a0000000000000000000000000000000000000000000000000000000008152600401610623906111c1565b60405180910390fd5b6000815111610670576040517f08c379a0000000000000000000000000000000000000000000000000000000008152600401610667906111e1565b60405180910390fd5b60011515610688836004610d0390919063ffffffff16565b1515146106ca576040517f08c379a00000000000000000000000000000000000000000000000000000000081526004016106c190611221565b60405180910390fd5b600060405180604001604052808473ffffffffffffffffffffffffffffffffffffffff16815260200183815250905080600660008573ffffffffffffffffffffffffffffffffffffffff1673ffffffffffffffffffffffffffffffffffffffff16815260200190815260200160002060008201518160000160006101000a81548173ffffffffffffffffffffffffffffffffffffffff021916908373ffffffffffffffffffffffffffffffffffffffff160217905550602082015181600101908051906020019061079c929190610e31565b509050503373ffffffffffffffffffffffffffffffffffffffff168373ffffffffffffffffffffffffffffffffffffffff167f25cf26997c32e214b8f52782c9af3df4a7a84a3fe7ab53e87e1b8cb8eaf1b6c7846040516107fd919061119f565b60405180910390a3505050565b60006060610816610a78565b83101561093257600060036000610837866001610d4890919063ffffffff16565b73ffffffffffffffffffffffffffffffffffffffff1673ffffffffffffffffffffffffffffffffffffffff16815260200190815260200160002090508060000160009054906101000a900473ffffffffffffffffffffffffffffffffffffffff16816001018080546108a890611378565b80601f01602080910402602001604051908101604052809291908181526020018280546108d490611378565b80156109215780601f106108f657610100808354040283529160200191610921565b820191906000526020600020905b81548152906001019060200180831161090457829003601f168201915b505050505090509250925050610949565b600060405180602001604052806000815250915091505b915091565b600060606000600660008573ffffffffffffffffffffffffffffffffffffffff1673ffffffffffffffffffffffffffffffffffffffff16815260200190815260200160002090508060000160009054906101000a900473ffffffffffffffffffffffffffffffffffffffff16816001018080546109ca90611378565b80601f01602080910402602001604051908101604052809291908181526020018280546109f690611378565b8015610a435780601f10610a1857610100808354040283529160200191610a43565b820191906000526020600020905b815481529060010190602001808311610a2657829003601f168201915b505050505090509250925050915091565b60008054906101000a900473ffffffffffffffffffffffffffffffffffffffff1681565b6000610a846001610d33565b905090565b60006060610a95610546565b831015610bb157600060066000610ab6866004610d4890919063ffffffff16565b73ffffffffffffffffffffffffffffffffffffffff1673ffffffffffffffffffffffffffffffffffffffff16815260200190815260200160002090508060000160009054906101000a900473ffffffffffffffffffffffffffffffffffffffff1681600101808054610b2790611378565b80601f0160208091040260200160405190810160405280929190818152602001828054610b5390611378565b8015610ba05780601f10610b7557610100808354040283529160200191610ba0565b820191906000526020600020905b815481529060010190602001808311610b8357829003601f168201915b505050505090509250925050610bc8565b600060405180602001604052806000815250915091505b915091565b600060606000600360008573ffffffffffffffffffffffffffffffffffffffff1673ffffffffffffffffffffffffffffffffffffffff16815260200190815260200160002090508060000160009054906101000a900473ffffffffffffffffffffffffffffffffffffffff1681600101808054610c4990611378565b80601f0160208091040260200160405190810160405280929190818152602001828054610c7590611378565b8015610cc25780601f10610c9757610100808354040283529160200191610cc2565b820191906000526020600020905b815481529060010190602001808311610ca557829003601f168201915b505050505090509250925050915091565b6000610cfb836000018373ffffffffffffffffffffffffffffffffffffffff1660001b610d62565b905092915050565b6000610d2b836000018373ffffffffffffffffffffffffffffffffffffffff1660001b610d85565b905092915050565b6000610d4182600001610df5565b9050919050565b6000610d578360000183610e06565b60001c905092915050565b600080836001016000848152602001908152602001600020541415905092915050565b6000610d918383610d62565b610dea578260000182908060018154018082558091505060019003906000526020600020016000909190919091505582600001805490508360010160008481526020019081526020016000208190555060019050610def565b600090505b92915050565b600081600001805490509050919050565b6000826000018281548110610e1e57610e1d61140a565b5b9060005260206000200154905092915050565b828054610e3d90611378565b90600052602060002090601f016020900481019282610e5f5760008555610ea6565b82601f10610e7857805160ff1916838001178555610ea6565b82800160010185558215610ea6579182015b82811115610ea5578251825591602001919060010190610e8a565b5b509050610eb39190610eb7565b5090565b5b80821115610ed0576000816000905550600101610eb8565b5090565b6000610ee7610ee2846112a1565b61127c565b905082815260208101848484011115610f0357610f0261146d565b5b610f0e848285611336565b509392505050565b600081359050610f2581611580565b92915050565b600082601f830112610f4057610f3f611468565b5b8135610f50848260208601610ed4565b91505092915050565b600081359050610f6881611597565b92915050565b600060208284031215610f8457610f83611477565b5b6000610f9284828501610f16565b91505092915050565b60008060408385031215610fb257610fb1611477565b5b6000610fc085828601610f16565b925050602083013567ffffffffffffffff811115610fe157610fe0611472565b5b610fed85828601610f2b565b9150509250929050565b60006020828403121561100d5761100c611477565b5b600061101b84828501610f59565b91505092915050565b61102d816112ee565b82525050565b61103c81611300565b82525050565b600061104d826112d2565b61105781856112dd565b9350611067818560208601611345565b6110708161147c565b840191505092915050565b6000611088600f836112dd565b91506110938261148d565b602082019050919050565b60006110ab6016836112dd565b91506110b6826114b6565b602082019050919050565b60006110ce603b836112dd565b91506110d9826114df565b604082019050919050565b60006110f1601a836112dd565b91506110fc8261152e565b602082019050919050565b60006111146016836112dd565b915061111f82611557565b602082019050919050565b6111338161132c565b82525050565b600060208201905061114e6000830184611024565b92915050565b60006040820190506111696000830185611024565b818103602083015261117b8184611042565b90509392505050565b60006020820190506111996000830184611033565b92915050565b600060208201905081810360008301526111b98184611042565b905092915050565b600060208201905081810360008301526111da8161107b565b9050919050565b600060208201905081810360008301526111fa8161109e565b9050919050565b6000602082019050818103600083015261121a816110c1565b9050919050565b6000602082019050818103600083015261123a816110e4565b9050919050565b6000602082019050818103600083015261125a81611107565b9050919050565b6000602082019050611276600083018461112a565b92915050565b6000611286611297565b905061129282826113aa565b919050565b6000604051905090565b600067ffffffffffffffff8211156112bc576112bb611439565b5b6112c58261147c565b9050602081019050919050565b600081519050919050565b600082825260208201905092915050565b60006112f98261130c565b9050919050565b60008115159050919050565b600073ffffffffffffffffffffffffffffffffffffffff82169050919050565b6000819050919050565b82818337600083830152505050565b60005b83811015611363578082015181840152602081019050611348565b83811115611372576000848401525b50505050565b6000600282049050600182168061139057607f821691505b602082108114156113a4576113a36113db565b5b50919050565b6113b38261147c565b810181811067ffffffffffffffff821117156113d2576113d1611439565b5b80604052505050565b7f4e487b7100000000000000000000000000000000000000000000000000000000600052602260045260246000fd5b7f4e487b7100000000000000000000000000000000000000000000000000000000600052603260045260246000fd5b7f4e487b7100000000000000000000000000000000000000000000000000000000600052604160045260246000fd5b600080fd5b600080fd5b600080fd5b600080fd5b6000601f19601f8301169050919050565b7f496e76616c696420616464726573730000000000000000000000000000000000600082015250565b7f456d707479206e616d65206e6f7420616c6c6f77656400000000000000000000600082015250565b7f4f6e6c79206120726567697374657265642074656163686572206163636f756e60008201527f742063616e206361727279206f7574207468697320616374696f6e0000000000602082015250565b7f4164647265737320616c72656164792072656769737465726564000000000000600082015250565b7f596f7520617265206e6f7420746865206f776e65722e00000000000000000000600082015250565b611589816112ee565b811461159457600080fd5b50565b6115a08161132c565b81146115ab57600080fd5b5056fea26469706673582212203f78b6961af93dd486cae2732f27614b4bea7d14c2bc4c2ed905967757fb84c364736f6c63430008070033",
  "immutableReferences": {},
  "source": "// SPDX-License-Identifier: MIT\r\n\r\npragma solidity ^0.8.0;\r\n\r\nimport \"./Teachers.sol\";\r\nimport \"@openzeppelin/contracts/utils/structs/EnumerableSet.sol\";\r\n\r\ncontract StudentsContract is TeachersContract {\r\n\r\n  using EnumerableSet for EnumerableSet.AddressSet;\r\n\r\n  struct StudentInfo {\r\n    address addr;\r\n    string name;\r\n  }\r\n\r\n  EnumerableSet.AddressSet students;\r\n  mapping (address => StudentInfo) internal studentInfo;\r\n\r\n  event StudentRegistered (\r\n    address indexed addr,\r\n    address indexed byAddr,\r\n    string name\r\n  );\r\n\r\n  modifier onlyTeacher() {\r\n    require(TeachersContract.checkTeacherRegistered(msg.sender),\r\n      \"Only a registered teacher account can carry out this action\"\r\n    );\r\n    _;\r\n  }\r\n\r\n  function registerNewStudent(address _addr, string memory _name) public onlyTeacher {\r\n    require(_addr != address(0), \"Invalid address\");\r\n    require(bytes(_name).length > 0, \"Empty name not allowed\");\r\n\r\n    require(students.add(_addr) == true, \"Address already registered\");\r\n    StudentInfo memory _info = StudentInfo(_addr, _name);\r\n    studentInfo[_addr] = _info;\r\n\r\n    emit StudentRegistered(_addr, msg.sender, _name);\r\n  }\r\n\r\n  function getStudentCount() public view returns(uint) {\r\n    return students.length();\r\n  }\r\n\r\n  function getStudentInfoByIndex(uint _index) public view returns (address addr, string memory name) {\r\n    if (_index < getStudentCount()) {\r\n      StudentInfo storage info = studentInfo[students.at(_index)];\r\n      return (info.addr, info.name);\r\n    }\r\n    else {\r\n      return (address(0), \"\");\r\n    }\r\n  }\r\n\r\n  function getStudentsInfoByAddress(address _addr) public view returns (address addr, string memory name) {\r\n    StudentInfo storage info = studentInfo[_addr];\r\n    return (info.addr, info.name);\r\n  }\r\n\r\n  function checkStudentRegistered(address _addr) public view returns (bool) {\r\n    return students.contains(_addr);\r\n  }\r\n}\r\n",
  "sourcePath": "C:\\Users\\Dharmveer\\Documents\\Projects\\CertiBlocks\\contracts\\Students.sol",
  "compiler": {
    "name": "solc",
    "version": "0.8.7+commit.e28d00a7.Emscripten.clang"
  },
  "schemaVersion": "3.4.3",
  "updatedAt": "2021-12-30T17:26:25.975Z",
  "devdoc": {
    "kind": "dev",
    "methods": {},
    "version": 1
  },
  "userdoc": {
    "kind": "user",
    "methods": {},
    "version": 1
  }
}