{
  "contractName": "TeachersContract",
  "abi": [
    {
      "anonymous": false,
      "inputs": [
        {
          "indexed": true,
          "internalType": "address",
          "name": "addr",
          "type": "address"
        },
        {
          "indexed": false,
          "internalType": "string",
          "name": "name",
          "type": "string"
        }
      ],
      "name": "TeacherRegistered",
      "type": "event"
    },
    {
      "inputs": [],
      "name": "owner",
      "outputs": [
        {
          "internalType": "address",
          "name": "",
          "type": "address"
        }
      ],
      "stateMutability": "view",
      "type": "function"
    },
    {
      "inputs": [
        {
          "internalType": "address",
          "name": "_addr",
          "type": "address"
        },
        {
          "internalType": "string",
          "name": "_name",
          "type": "string"
        }
      ],
      "name": "registerNewTeacher",
      "outputs": [],
      "stateMutability": "nonpayable",
      "type": "function"
    },
    {
      "inputs": [],
      "name": "getTeacherCount",
      "outputs": [
        {
          "internalType": "uint256",
          "name": "",
          "type": "uint256"
        }
      ],
      "stateMutability": "view",
      "type": "function"
    },
    {
      "inputs": [
        {
          "internalType": "uint256",
          "name": "_index",
          "type": "uint256"
        }
      ],
      "name": "getTeacherInfoByIndex",
      "outputs": [
        {
          "internalType": "address",
          "name": "addr",
          "type": "address"
        },
        {
          "internalType": "string",
          "name": "name",
          "type": "string"
        }
      ],
      "stateMutability": "view",
      "type": "function"
    },
    {
      "inputs": [
        {
          "internalType": "address",
          "name": "_addr",
          "type": "address"
        }
      ],
      "name": "getTeacherInfoByAddress",
      "outputs": [
        {
          "internalType": "address",
          "name": "addr",
          "type": "address"
        },
        {
          "internalType": "string",
          "name": "name",
          "type": "string"
        }
      ],
      "stateMutability": "view",
      "type": "function"
    },
    {
      "inputs": [
        {
          "internalType": "address",
          "name": "_addr",
          "type": "address"
        }
      ],
      "name": "checkTeacherRegistered",
      "outputs": [
        {
          "internalType": "bool",
          "name": "",
          "type": "bool"
        }
      ],
      "stateMutability": "view",
      "type": "function"
    }
  ],
  "bytecode": "0x608060405234801561001057600080fd5b50336000806101000a81548173ffffffffffffffffffffffffffffffffffffffff021916908373ffffffffffffffffffffffffffffffffffffffff160217905550610f31806100606000396000f3fe608060405234801561001057600080fd5b50600436106100625760003560e01c80630b009f6d14610067578063423bbd4a1461008357806388b45a6c146100b35780638da5cb5b146100e4578063b6f6988014610102578063fd59f7ef14610120575b600080fd5b610081600480360381019061007c919061097a565b610151565b005b61009d6004803603810190610098919061094d565b610416565b6040516100aa9190610b40565b60405180910390f35b6100cd60048036038101906100c891906109d6565b610433565b6040516100db929190610b10565b60405180910390f35b6100ec610577565b6040516100f99190610af5565b60405180910390f35b61010a61059b565b6040516101179190610bfd565b60405180910390f35b61013a6004803603810190610135919061094d565b6105ac565b604051610148929190610b10565b60405180910390f35b60008054906101000a900473ffffffffffffffffffffffffffffffffffffffff1673ffffffffffffffffffffffffffffffffffffffff163373ffffffffffffffffffffffffffffffffffffffff16146101df576040517f08c379a00000000000000000000000000000000000000000000000000000000081526004016101d690610bdd565b60405180910390fd5b600073ffffffffffffffffffffffffffffffffffffffff168273ffffffffffffffffffffffffffffffffffffffff16141561024f576040517f08c379a000000000000000000000000000000000000000000000000000000000815260040161024690610b7d565b60405180910390fd5b6000815111610293576040517f08c379a000000000000000000000000000000000000000000000000000000000815260040161028a90610b9d565b60405180910390fd5b600115156102ab8360016106b290919063ffffffff16565b1515146102ed576040517f08c379a00000000000000000000000000000000000000000000000000000000081526004016102e490610bbd565b60405180910390fd5b600060405180604001604052808473ffffffffffffffffffffffffffffffffffffffff16815260200183815250905080600360008573ffffffffffffffffffffffffffffffffffffffff1673ffffffffffffffffffffffffffffffffffffffff16815260200190815260200160002060008201518160000160006101000a81548173ffffffffffffffffffffffffffffffffffffffff021916908373ffffffffffffffffffffffffffffffffffffffff16021790555060208201518160010190805190602001906103bf929190610810565b509050508273ffffffffffffffffffffffffffffffffffffffff167f19ebf0e30a8e689d058b16b6b5a058ee1288ae105d904219087073039e0c4ac0836040516104099190610b5b565b60405180910390a2505050565b600061042c8260016106e290919063ffffffff16565b9050919050565b6000606061043f61059b565b83101561055b5760006003600061046086600161071290919063ffffffff16565b73ffffffffffffffffffffffffffffffffffffffff1673ffffffffffffffffffffffffffffffffffffffff16815260200190815260200160002090508060000160009054906101000a900473ffffffffffffffffffffffffffffffffffffffff16816001018080546104d190610d14565b80601f01602080910402602001604051908101604052809291908181526020018280546104fd90610d14565b801561054a5780601f1061051f5761010080835404028352916020019161054a565b820191906000526020600020905b81548152906001019060200180831161052d57829003601f168201915b505050505090509250925050610572565b600060405180602001604052806000815250915091505b915091565b60008054906101000a900473ffffffffffffffffffffffffffffffffffffffff1681565b60006105a7600161072c565b905090565b600060606000600360008573ffffffffffffffffffffffffffffffffffffffff1673ffffffffffffffffffffffffffffffffffffffff16815260200190815260200160002090508060000160009054906101000a900473ffffffffffffffffffffffffffffffffffffffff168160010180805461062890610d14565b80601f016020809104026020016040519081016040528092919081815260200182805461065490610d14565b80156106a15780601f10610676576101008083540402835291602001916106a1565b820191906000526020600020905b81548152906001019060200180831161068457829003601f168201915b505050505090509250925050915091565b60006106da836000018373ffffffffffffffffffffffffffffffffffffffff1660001b610741565b905092915050565b600061070a836000018373ffffffffffffffffffffffffffffffffffffffff1660001b6107b1565b905092915050565b600061072183600001836107d4565b60001c905092915050565b600061073a826000016107ff565b9050919050565b600061074d83836107b1565b6107a65782600001829080600181540180825580915050600190039060005260206000200160009091909190915055826000018054905083600101600084815260200190815260200160002081905550600190506107ab565b600090505b92915050565b600080836001016000848152602001908152602001600020541415905092915050565b60008260000182815481106107ec576107eb610da6565b5b9060005260206000200154905092915050565b600081600001805490509050919050565b82805461081c90610d14565b90600052602060002090601f01602090048101928261083e5760008555610885565b82601f1061085757805160ff1916838001178555610885565b82800160010185558215610885579182015b82811115610884578251825591602001919060010190610869565b5b5090506108929190610896565b5090565b5b808211156108af576000816000905550600101610897565b5090565b60006108c66108c184610c3d565b610c18565b9050828152602081018484840111156108e2576108e1610e09565b5b6108ed848285610cd2565b509392505050565b60008135905061090481610ecd565b92915050565b600082601f83011261091f5761091e610e04565b5b813561092f8482602086016108b3565b91505092915050565b60008135905061094781610ee4565b92915050565b60006020828403121561096357610962610e13565b5b6000610971848285016108f5565b91505092915050565b6000806040838503121561099157610990610e13565b5b600061099f858286016108f5565b925050602083013567ffffffffffffffff8111156109c0576109bf610e0e565b5b6109cc8582860161090a565b9150509250929050565b6000602082840312156109ec576109eb610e13565b5b60006109fa84828501610938565b91505092915050565b610a0c81610c8a565b82525050565b610a1b81610c9c565b82525050565b6000610a2c82610c6e565b610a368185610c79565b9350610a46818560208601610ce1565b610a4f81610e18565b840191505092915050565b6000610a67600f83610c79565b9150610a7282610e29565b602082019050919050565b6000610a8a601683610c79565b9150610a9582610e52565b602082019050919050565b6000610aad601a83610c79565b9150610ab882610e7b565b602082019050919050565b6000610ad0601683610c79565b9150610adb82610ea4565b602082019050919050565b610aef81610cc8565b82525050565b6000602082019050610b0a6000830184610a03565b92915050565b6000604082019050610b256000830185610a03565b8181036020830152610b378184610a21565b90509392505050565b6000602082019050610b556000830184610a12565b92915050565b60006020820190508181036000830152610b758184610a21565b905092915050565b60006020820190508181036000830152610b9681610a5a565b9050919050565b60006020820190508181036000830152610bb681610a7d565b9050919050565b60006020820190508181036000830152610bd681610aa0565b9050919050565b60006020820190508181036000830152610bf681610ac3565b9050919050565b6000602082019050610c126000830184610ae6565b92915050565b6000610c22610c33565b9050610c2e8282610d46565b919050565b6000604051905090565b600067ffffffffffffffff821115610c5857610c57610dd5565b5b610c6182610e18565b9050602081019050919050565b600081519050919050565b600082825260208201905092915050565b6000610c9582610ca8565b9050919050565b60008115159050919050565b600073ffffffffffffffffffffffffffffffffffffffff82169050919050565b6000819050919050565b82818337600083830152505050565b60005b83811015610cff578082015181840152602081019050610ce4565b83811115610d0e576000848401525b50505050565b60006002820490506001821680610d2c57607f821691505b60208210811415610d4057610d3f610d77565b5b50919050565b610d4f82610e18565b810181811067ffffffffffffffff82111715610d6e57610d6d610dd5565b5b80604052505050565b7f4e487b7100000000000000000000000000000000000000000000000000000000600052602260045260246000fd5b7f4e487b7100000000000000000000000000000000000000000000000000000000600052603260045260246000fd5b7f4e487b7100000000000000000000000000000000000000000000000000000000600052604160045260246000fd5b600080fd5b600080fd5b600080fd5b600080fd5b6000601f19601f8301169050919050565b7f496e76616c696420616464726573730000000000000000000000000000000000600082015250565b7f456d707479206e616d65206e6f7420616c6c6f77656400000000000000000000600082015250565b7f4164647265737320616c72656164792072656769737465726564000000000000600082015250565b7f596f7520617265206e6f7420746865206f776e65722e00000000000000000000600082015250565b610ed681610c8a565b8114610ee157600080fd5b50565b610eed81610cc8565b8114610ef857600080fd5b5056fea2646970667358221220e5ebccc30bbe1788d65c5eb07f5e180a617544b6b458dbf1ea28f7ff0602b02c64736f6c63430008070033",
  "immutableReferences": {},
  "source": "// SPDX-License-Identifier: MIT\r\n\r\npragma solidity ^0.8.0;\r\n\r\nimport \"./Ownable.sol\";\r\nimport \"@openzeppelin/contracts/utils/structs/EnumerableSet.sol\";\r\n\r\ncontract TeachersContract is Ownable {\r\n\r\n  using EnumerableSet for EnumerableSet.AddressSet;\r\n\r\n  struct TeacherInfo {\r\n    address addr;\r\n    string name;\r\n  }\r\n\r\n  EnumerableSet.AddressSet teachers;\r\n  mapping (address => TeacherInfo) internal teacherInfo;\r\n\r\n  event TeacherRegistered (\r\n    address indexed addr,\r\n    string name\r\n  );\r\n\r\n  function registerNewTeacher(address _addr, string memory _name) public onlyOwner {\r\n    require(_addr != address(0), \"Invalid address\");\r\n    require(bytes(_name).length > 0, \"Empty name not allowed\");\r\n\r\n    require(teachers.add(_addr) == true, \"Address already registered\");\r\n    TeacherInfo memory _info = TeacherInfo(_addr, _name);\r\n    teacherInfo[_addr] = _info;\r\n\r\n    emit TeacherRegistered(_addr, _name);\r\n  }\r\n\r\n  function getTeacherCount() public view returns(uint) {\r\n    return teachers.length();\r\n  }\r\n\r\n  function getTeacherInfoByIndex(uint _index) public view returns (address addr, string memory name) {\r\n    if (_index < getTeacherCount()) {\r\n      TeacherInfo storage info = teacherInfo[teachers.at(_index)];\r\n      return (info.addr, info.name);\r\n    }\r\n    else {\r\n      return (address(0), \"\");\r\n    }\r\n  }\r\n\r\n  function getTeacherInfoByAddress(address _addr) public view returns (address addr, string memory name) {\r\n    TeacherInfo storage info = teacherInfo[_addr];\r\n    return (info.addr, info.name);\r\n  }\r\n\r\n  function checkTeacherRegistered(address _addr) public view returns (bool) {\r\n    return teachers.contains(_addr);\r\n  }\r\n}\r\n",
  "sourcePath": "C:\\Users\\Dharmveer\\Documents\\Projects\\CertiBlocks\\contracts\\Teachers.sol",
  "compiler": {
    "name": "solc",
    "version": "0.8.7+commit.e28d00a7.Emscripten.clang"
  },
  "schemaVersion": "3.4.3",
  "updatedAt": "2021-12-30T17:26:26.007Z",
  "devdoc": {
    "kind": "dev",
    "methods": {},
    "version": 1
  },
  "userdoc": {
    "kind": "user",
    "methods": {},
    "version": 1
  }
}